{
  "contractName": "DoubleSidedAuction",
  "abi": [
    {
      "constant": true,
      "inputs": [],
      "name": "name",
      "outputs": [
        {
          "name": "",
          "type": "string"
        }
      ],
      "payable": false,
      "stateMutability": "view",
      "type": "function"
    },
    {
      "constant": false,
      "inputs": [
        {
          "name": "_spender",
          "type": "address"
        },
        {
          "name": "_value",
          "type": "uint256"
        }
      ],
      "name": "approve",
      "outputs": [
        {
          "name": "success",
          "type": "bool"
        }
      ],
      "payable": false,
      "stateMutability": "nonpayable",
      "type": "function"
    },
    {
      "constant": true,
      "inputs": [
        {
          "name": "",
          "type": "uint256"
        }
      ],
      "name": "ArrayWonBid",
      "outputs": [
        {
          "name": "AvgPrice",
          "type": "uint256"
        },
        {
          "name": "AvgQty",
          "type": "uint256"
        },
        {
          "name": "Seller",
          "type": "address"
        },
        {
          "name": "Buyer",
          "type": "address"
        },
        {
          "name": "RfId",
          "type": "uint256"
        },
        {
          "name": "countconfirm",
          "type": "uint256"
        }
      ],
      "payable": false,
      "stateMutability": "view",
      "type": "function"
    },
    {
      "constant": true,
      "inputs": [],
      "name": "totalSupply",
      "outputs": [
        {
          "name": "",
          "type": "uint256"
        }
      ],
      "payable": false,
      "stateMutability": "view",
      "type": "function"
    },
    {
      "constant": false,
      "inputs": [
        {
          "name": "tokenName",
          "type": "string"
        },
        {
          "name": "tokenSymbol",
          "type": "string"
        }
      ],
      "name": "ChangeTokenSymbName",
      "outputs": [],
      "payable": false,
      "stateMutability": "nonpayable",
      "type": "function"
    },
    {
      "constant": false,
      "inputs": [
        {
          "name": "_from",
          "type": "address"
        },
        {
          "name": "_to",
          "type": "address"
        },
        {
          "name": "_value",
          "type": "uint256"
        }
      ],
      "name": "transferFrom",
      "outputs": [
        {
          "name": "success",
          "type": "bool"
        }
      ],
      "payable": false,
      "stateMutability": "nonpayable",
      "type": "function"
    },
    {
      "constant": true,
      "inputs": [
        {
          "name": "",
          "type": "uint256"
        }
      ],
      "name": "userIDtoAddress",
      "outputs": [
        {
          "name": "",
          "type": "address"
        }
      ],
      "payable": false,
      "stateMutability": "view",
      "type": "function"
    },
    {
      "constant": true,
      "inputs": [],
      "name": "decimals",
      "outputs": [
        {
          "name": "",
          "type": "uint8"
        }
      ],
      "payable": false,
      "stateMutability": "view",
      "type": "function"
    },
    {
      "constant": true,
      "inputs": [
        {
          "name": "",
          "type": "uint256"
        }
      ],
      "name": "users",
      "outputs": [
        {
          "name": "typeOfUser",
          "type": "uint256"
        },
        {
          "name": "gridNo",
          "type": "uint256"
        },
        {
          "name": "consumedEnergy",
          "type": "uint256"
        },
        {
          "name": "producedEnergy",
          "type": "uint256"
        },
        {
          "name": "time",
          "type": "uint256"
        },
        {
          "name": "userDebt",
          "type": "uint256"
        },
        {
          "name": "RelayState",
          "type": "uint256"
        },
        {
          "name": "UtilityDebt",
          "type": "uint256"
        }
      ],
      "payable": false,
      "stateMutability": "view",
      "type": "function"
    },
    {
      "constant": false,
      "inputs": [
        {
          "name": "_value",
          "type": "uint256"
        }
      ],
      "name": "burn",
      "outputs": [
        {
          "name": "success",
          "type": "bool"
        }
      ],
      "payable": false,
      "stateMutability": "nonpayable",
      "type": "function"
    },
    {
      "constant": false,
      "inputs": [
        {
          "name": "_spender",
          "type": "address"
        },
        {
          "name": "_value",
          "type": "uint256"
        }
      ],
      "name": "UpdateAllowance",
      "outputs": [
        {
          "name": "success",
          "type": "bool"
        }
      ],
      "payable": false,
      "stateMutability": "nonpayable",
      "type": "function"
    },
    {
      "constant": true,
      "inputs": [
        {
          "name": "addr",
          "type": "address"
        }
      ],
      "name": "CheckMybalance",
      "outputs": [
        {
          "name": "",
          "type": "uint256"
        }
      ],
      "payable": false,
      "stateMutability": "view",
      "type": "function"
    },
    {
      "constant": false,
      "inputs": [
        {
          "name": "_value",
          "type": "uint256"
        }
      ],
      "name": "AddToken",
      "outputs": [
        {
          "name": "success",
          "type": "bool"
        }
      ],
      "payable": false,
      "stateMutability": "nonpayable",
      "type": "function"
    },
    {
      "constant": true,
      "inputs": [
        {
          "name": "",
          "type": "uint256"
        }
      ],
      "name": "RefId",
      "outputs": [
        {
          "name": "",
          "type": "uint256"
        }
      ],
      "payable": false,
      "stateMutability": "view",
      "type": "function"
    },
    {
      "constant": true,
      "inputs": [
        {
          "name": "",
          "type": "address"
        }
      ],
      "name": "balanceOf",
      "outputs": [
        {
          "name": "",
          "type": "uint256"
        }
      ],
      "payable": false,
      "stateMutability": "view",
      "type": "function"
    },
    {
      "constant": true,
      "inputs": [
        {
          "name": "",
          "type": "address"
        }
      ],
      "name": "userAddresstoID",
      "outputs": [
        {
          "name": "",
          "type": "uint256"
        }
      ],
      "payable": false,
      "stateMutability": "view",
      "type": "function"
    },
    {
      "constant": false,
      "inputs": [
        {
          "name": "_from",
          "type": "address"
        },
        {
          "name": "_value",
          "type": "uint256"
        }
      ],
      "name": "burnFrom",
      "outputs": [
        {
          "name": "success",
          "type": "bool"
        }
      ],
      "payable": false,
      "stateMutability": "nonpayable",
      "type": "function"
    },
    {
      "constant": true,
      "inputs": [],
      "name": "symbol",
      "outputs": [
        {
          "name": "",
          "type": "string"
        }
      ],
      "payable": false,
      "stateMutability": "view",
      "type": "function"
    },
    {
      "constant": true,
      "inputs": [],
      "name": "ExchangeAddr",
      "outputs": [
        {
          "name": "",
          "type": "address"
        }
      ],
      "payable": false,
      "stateMutability": "view",
      "type": "function"
    },
    {
      "constant": false,
      "inputs": [
        {
          "name": "_to",
          "type": "address"
        },
        {
          "name": "_value",
          "type": "uint256"
        }
      ],
      "name": "transfer",
      "outputs": [
        {
          "name": "success",
          "type": "bool"
        }
      ],
      "payable": false,
      "stateMutability": "nonpayable",
      "type": "function"
    },
    {
      "constant": true,
      "inputs": [],
      "name": "Utility",
      "outputs": [
        {
          "name": "",
          "type": "address"
        }
      ],
      "payable": false,
      "stateMutability": "view",
      "type": "function"
    },
    {
      "constant": true,
      "inputs": [],
      "name": "MinBal",
      "outputs": [
        {
          "name": "",
          "type": "uint256"
        }
      ],
      "payable": false,
      "stateMutability": "view",
      "type": "function"
    },
    {
      "anonymous": false,
      "inputs": [
        {
          "indexed": true,
          "name": "from",
          "type": "address"
        },
        {
          "indexed": true,
          "name": "to",
          "type": "address"
        },
        {
          "indexed": false,
          "name": "value",
          "type": "uint256"
        }
      ],
      "name": "Transfer",
      "type": "event"
    },
    {
      "anonymous": false,
      "inputs": [
        {
          "indexed": true,
          "name": "_owner",
          "type": "address"
        },
        {
          "indexed": true,
          "name": "_spender",
          "type": "address"
        },
        {
          "indexed": false,
          "name": "_value",
          "type": "uint256"
        }
      ],
      "name": "Approval",
      "type": "event"
    },
    {
      "anonymous": false,
      "inputs": [
        {
          "indexed": true,
          "name": "from",
          "type": "address"
        },
        {
          "indexed": false,
          "name": "value",
          "type": "uint256"
        }
      ],
      "name": "Burn",
      "type": "event"
    },
    {
      "anonymous": false,
      "inputs": [
        {
          "indexed": true,
          "name": "from",
          "type": "address"
        },
        {
          "indexed": false,
          "name": "value",
          "type": "uint256"
        }
      ],
      "name": "Mined",
      "type": "event"
    },
    {
      "constant": false,
      "inputs": [
        {
          "name": "_Min",
          "type": "uint256"
        }
      ],
      "name": "changeMinBalance",
      "outputs": [],
      "payable": false,
      "stateMutability": "nonpayable",
      "type": "function"
    },
    {
      "constant": false,
      "inputs": [
        {
          "name": "_price",
          "type": "uint256"
        },
        {
          "name": "_Qty",
          "type": "uint256"
        }
      ],
      "name": "placeSellTokenOffer",
      "outputs": [],
      "payable": false,
      "stateMutability": "nonpayable",
      "type": "function"
    },
    {
      "constant": false,
      "inputs": [
        {
          "name": "_price",
          "type": "uint256"
        },
        {
          "name": "_Qty",
          "type": "uint256"
        }
      ],
      "name": "placeBuyTokenOffer",
      "outputs": [],
      "payable": false,
      "stateMutability": "nonpayable",
      "type": "function"
    },
    {
      "constant": true,
      "inputs": [],
      "name": "viewSellTokenOffers",
      "outputs": [
        {
          "name": "Sell_Price",
          "type": "uint256[]"
        },
        {
          "name": "Sell_Qty",
          "type": "uint256[]"
        }
      ],
      "payable": false,
      "stateMutability": "view",
      "type": "function"
    },
    {
      "constant": true,
      "inputs": [],
      "name": "viewBuyTokenOffers",
      "outputs": [
        {
          "name": "Buy_Price",
          "type": "uint256[]"
        },
        {
          "name": "Buy_Qty",
          "type": "uint256[]"
        }
      ],
      "payable": false,
      "stateMutability": "view",
      "type": "function"
    },
    {
      "constant": false,
      "inputs": [],
      "name": "clearTokenOffers",
      "outputs": [],
      "payable": false,
      "stateMutability": "nonpayable",
      "type": "function"
    },
    {
      "constant": false,
      "inputs": [
        {
          "name": "_RefId",
          "type": "uint256"
        }
      ],
      "name": "sellerConfirmation",
      "outputs": [
        {
          "name": "success",
          "type": "bool"
        }
      ],
      "payable": false,
      "stateMutability": "nonpayable",
      "type": "function"
    },
    {
      "constant": false,
      "inputs": [
        {
          "name": "_RefId",
          "type": "uint256"
        }
      ],
      "name": "buyerConfirmation",
      "outputs": [
        {
          "name": "success",
          "type": "bool"
        }
      ],
      "payable": false,
      "stateMutability": "nonpayable",
      "type": "function"
    }
  ],
  "bytecode": "0x60c0604052600b60808190527f456e6572677920436f696e00000000000000000000000000000000000000000060a0908152620000409160009190620000e5565b506040805180820190915260028082527f454300000000000000000000000000000000000000000000000000000000000060209092019182526200008791600191620000e5565b50600280547e3899162693736ac531a5a58f1fbb4b746504382ca7e400000000000000000060058190556101f4601155336101008102600160a860020a0319909316929092179092556000908152600660205260409020556200018a565b828054600181600116156101000203166002900490600052602060002090601f016020900481019282601f106200012857805160ff191683800117855562000158565b8280016001018555821562000158579182015b82811115620001585782518255916020019190600101906200013b565b50620001669291506200016a565b5090565b6200018791905b8082111562000166576000815560010162000171565b90565b612e1b806200019a6000396000f3006080604052600436106101665763ffffffff60e060020a60003504166306fdde03811461016b578063095ea7b3146101f55780630ba3c75b1461022d5780631203b64c1461024557806312f2e6ba146102f357806315d1ac2f1461034a57806318160ddd14610362578063201a704e1461038957806323b872dd14610422578063292bc0381461044c578063313ce56714610480578063365b98b2146104ab57806342966c68146105045780634ea18fab1461051c578063590f742c146105345780635a754f89146105585780635bcb5fd414610579578063631f2bb81461059157806369560c5d146105a957806370a08231146105be57806379a0917f146105df57806379cc6790146106005780639324e55b1461062457806395d89b411461063f57806398cc42db14610654578063a9059cbb14610669578063d548d7931461068d578063d6962d27146106a2578063eda46dd9146106bd578063fbf88d48146106d2575b600080fd5b34801561017757600080fd5b506101806106e7565b6040805160208082528351818301528351919283929083019185019080838360005b838110156101ba5781810151838201526020016101a2565b50505050905090810190601f1680156101e75780820380516001836020036101000a031916815260200191505b509250505060405180910390f35b34801561020157600080fd5b50610219600160a060020a0360043516602435610775565b604080519115158252519081900360200190f35b34801561023957600080fd5b506102196004356107cc565b34801561025157600080fd5b5061025a610a9f565b604051808060200180602001838103835285818151815260200191508051906020019060200280838360005b8381101561029e578181015183820152602001610286565b50505050905001838103825284818151815260200191508051906020019060200280838360005b838110156102dd5781810151838201526020016102c5565b5050505090500194505050505060405180910390f35b3480156102ff57600080fd5b5061030b600435610b52565b604080519687526020870195909552600160a060020a0393841686860152919092166060850152608084019190915260a0830152519081900360c00190f35b34801561035657600080fd5b50610219600435610ba5565b34801561036e57600080fd5b50610377610de4565b60408051918252519081900360200190f35b34801561039557600080fd5b506040805160206004803580820135601f810184900484028501840190955284845261042094369492936024939284019190819084018382808284375050604080516020601f89358b018035918201839004830284018301909452808352979a999881019791965091820194509250829150840183828082843750949750610dea9650505050505050565b005b34801561042e57600080fd5b50610219600160a060020a0360043581169060243516604435610e6b565b34801561045857600080fd5b50610464600435610f1f565b60408051600160a060020a039092168252519081900360200190f35b34801561048c57600080fd5b50610495610f3a565b6040805160ff9092168252519081900360200190f35b3480156104b757600080fd5b506104c3600435610f43565b604080519889526020890197909752878701959095526060870193909352608086019190915260a085015260c084015260e083015251908190036101000190f35b34801561051057600080fd5b50610219600435610f99565b34801561052857600080fd5b50610420600435610fff565b34801561054057600080fd5b50610219600160a060020a0360043516602435611059565b34801561056457600080fd5b50610377600160a060020a03600435166110ad565b34801561058557600080fd5b506102196004356110d8565b34801561059d57600080fd5b5061037760043561118a565b3480156105b557600080fd5b5061025a61119c565b3480156105ca57600080fd5b50610377600160a060020a036004351661124b565b3480156105eb57600080fd5b50610377600160a060020a036004351661125d565b34801561060c57600080fd5b50610219600160a060020a036004351660243561126f565b34801561063057600080fd5b50610420600435602435611340565b34801561064b57600080fd5b50610180611641565b34801561066057600080fd5b5061046461169b565b34801561067557600080fd5b50610219600160a060020a03600435166024356116aa565b34801561069957600080fd5b506104206116c0565b3480156106ae57600080fd5b5061042060043560243561171a565b3480156106c957600080fd5b50610464611988565b3480156106de57600080fd5b50610377611997565b6000805460408051602060026001851615610100026000190190941693909304601f8101849004840282018401909252818152929183018282801561076d5780601f106107425761010080835404028352916020019161076d565b820191906000526020600020905b81548152906001019060200180831161075057829003601f168201915b505050505081565b336000818152600760209081526040808320600160a060020a03871680855290835281842080548701905581518681529151939490939092600080516020612db0833981519152928290030190a350600192915050565b33600081815260086020818152604080842054600160a060020a039081168086526016845282862054865260158452918520548686529390925292939291161461084e576040805160e560020a62461bcd0281526020600482015260146024820152600080516020612d70833981519152604482015290519081900360640190fd5b60008381526014602052604090205460128054339290811061086c57fe5b6000918252602090912060036006909202010154600160a060020a03161415610a94576000838152601460205260409020546012805490919081106108ad57fe5b90600052602060002090600602016005015460021415610a3d576003546000848152601460205260408120546012805461096194600160a060020a03169360089390929181106108f957fe5b6000918252602080832060036006909302019190910154600160a060020a03908116845283820194909452604092830182205489835260149091529190205460128054929093169291811061094a57fe5b906000526020600020906006020160010154610e6b565b5060008381526014602052604090205460128054909190811061098057fe5b6000918252602080832060016006909302019190910154600354600160a060020a0316835260078252604080842087855260149093528320546012805492949290919081106109cb57fe5b6000918252602080832060026006909302019190910154600160a060020a031683528281019390935260409182018120805494909403909355858352601490915290205460128054600392908110610a1f57fe5b90600052602060002090600602016005018190555060019150610a99565b600083815260146020526040902054601280549091908110610a5b57fe5b90600052602060002090600602016005015460001415610a945760008381526014602052604090205460128054600192908110610a1f57fe5b600091505b50919050565b606080600a600b81805480602002602001604051908101604052809291908181526020018280548015610af157602002820191906000526020600020905b815481526020019060010190808311610add575b5050505050915080805480602002602001604051908101604052809291908181526020018280548015610b4357602002820191906000526020600020905b815481526020019060010190808311610b2f575b50505050509050915091509091565b6012805482908110610b6057fe5b60009182526020909120600690910201805460018201546002830154600384015460048501546005909501549395509193600160a060020a0391821693929091169186565b33600081815260086020818152604080842054600160a060020a0390811680865260168452828620548652601584529185205486865293909252929392911614610c27576040805160e560020a62461bcd0281526020600482015260146024820152600080516020612d70833981519152604482015290519081900360640190fd5b600083815260146020526040902054601280543392908110610c4557fe5b6000918252602090912060026006909202010154600160a060020a03161415610a9457600083815260146020526040902054601280549091908110610c8657fe5b90600052602060002090600602016005015460011415610d8d5760035460008481526014602052604081205460128054610cd294600160a060020a03169360089390929181106108f957fe5b50600083815260146020526040902054601280549091908110610cf157fe5b6000918252602080832060016006909302019190910154600354600160a060020a031683526007825260408084208785526014909352832054601280549294929091908110610d3c57fe5b600091825260208083206003600690930201820154600160a060020a0316845283810194909452604092830182208054959095039094558681526014909252902054601280549091908110610a1f57fe5b600083815260146020526040902054601280549091908110610dab57fe5b90600052602060002090600602016005015460001415610a945760008381526014602052604090205460128054600292908110610a1f57fe5b60055481565b6002546101009004600160a060020a03163314610e3f576040805160e560020a62461bcd0281526020600482015260166024820152600080516020612d90833981519152604482015290519081900360640190fd5b8151610e52906000906020850190612bf5565b508051610e66906001906020840190612bf5565b505050565b6003546000908190600160a060020a0316331480610e9857506002546101009004600160a060020a031633145b15610eb257610ea885858561199d565b9050809150610f17565b600160a060020a0385166000908152600760209081526040808320338452909152902054831115610ee257600080fd5b600160a060020a0385166000908152600760209081526040808320338452909152902080548490039055610ea885858561199d565b509392505050565b601560205260009081526040902054600160a060020a031681565b60025460ff1681565b6009805482908110610f5157fe5b90600052602060002090600c020160009150905080600001549080600101549080600201549080600301549080600401549080600901549080600a01549080600b0154905088565b33600090815260066020526040812054821115610fb557600080fd5b336000818152600660209081526040918290208054869003905560058054869003905581518581529151600080516020612dd08339815191529281900390910190a2506001919050565b6002546101009004600160a060020a03163314611054576040805160e560020a62461bcd0281526020600482015260166024820152600080516020612d90833981519152604482015290519081900360640190fd5b601155565b336000818152600760209081526040808320600160a060020a03871680855290835281842086905581518681529151939490939092600080516020612db0833981519152928290030190a350600192915050565b600160a060020a03908116600090815260086020908152604080832054909316825260069052205490565b6002546000906101009004600160a060020a03163314611130576040805160e560020a62461bcd0281526020600482015260166024820152600080516020612d90833981519152604482015290519081900360640190fd5b336000818152600660209081526040918290208054860190556005805486019055815185815291517f3ad10ba9777a3bc21180a465e5459861d07cbdb271af9a0f10c993b365b760f89281900390910190a2506001919050565b60136020526000908152604090205481565b606080600d600e81805480602002602001604051908101604052809291908181526020018280548015610af15760200282019190600052602060002090815481526020019060010190808311610add575050505050915080805480602002602001604051908101604052809291908181526020018280548015610b435760200282019190600052602060002090815481526020019060010190808311610b2f5750505050509050915091509091565b60066020526000908152604090205481565b60166020526000908152604090205481565b6002546000906101009004600160a060020a031633146112c7576040805160e560020a62461bcd0281526020600482015260166024820152600080516020612d90833981519152604482015290519081900360640190fd5b600160a060020a0383166000908152600660205260409020548211156112ec57600080fd5b600160a060020a0383166000818152600660209081526040918290208054869003905560058054869003905581518581529151600080516020612dd08339815191529281900390910190a250600192915050565b33600081815260086020818152604080842054600160a060020a0390811680865260168452828620548652601584529185205494869052929091529116146113c0576040805160e560020a62461bcd0281526020600482015260146024820152600080516020612d70833981519152604482015290519081900360640190fd5b60115433600090815260086020908152604080832054600160a060020a03168352600690915290205483918201111561143b576040805160e560020a62461bcd0281526020600482015260126024820152607060020a714e6f7420456e6f7567682062616c616e636502604482015290519081900360640190fd5b60035461145190600160a060020a031684610775565b50600a8054600181810183557fc65a7bb8d6351c1cf70c95a316cc6a92839c986682d98bc35f958f4883f9d2a8909101869055600b80548083019091557f0175b7a638427703f0dbe7bb9bbf987a2551717b34e79f33b5b1008d1fa01db901859055600c805491820181556000527fdf6966c971051c3d54ec59162606531493a51404a002842f56009d7e5cf4a8c7018054600160a060020a031916331790558054604080516020838102820181019092528281526115f3939092909183018282801561153d57602002820191906000526020600020905b815481526020019060010190808311611529575b5050505050600b80548060200260200160405190810160405280929190818152602001828054801561158e57602002820191906000526020600020905b81548152602001906001019080831161157a575b5050505050600c8054806020026020016040519081016040528092919081815260200182805480156115e957602002820191906000526020600020905b8154600160a060020a031681526001909101906020018083116115cb575b5050505050611a6f565b8051600a90600090600b90829061161190600c906020880190612c73565b5050845161162491906020870190612cd4565b5050835161163791906020860190612cd4565b5050505050505050565b60018054604080516020600284861615610100026000190190941693909304601f8101849004840282018401909252818152929183018282801561076d5780601f106107425761010080835404028352916020019161076d565b600354600160a060020a031681565b6000806116b833858561199d565b949350505050565b600354600160a060020a03163314611710576040805160e560020a62461bcd0281526020600482015260166024820152600080516020612d90833981519152604482015290519081900360640190fd5b611718611d8a565b565b33600081815260086020818152604080842054600160a060020a03908116808652601684528286205486526015845291852054948690529290915291161461179a576040805160e560020a62461bcd0281526020600482015260146024820152600080516020612d70833981519152604482015290519081900360640190fd5b600d8054600181810183557fd7b6990105719101dabeb77144f2a3385c8033acd3af97e9423a695e81ad1eb5909101859055600e80548083019091557fbb7b4a454dc3493923482f07822329ed19e8244eff582cc204f8554c3620c3fd01849055600f805491820181556000527f8d1108e10bcb7c27dddfc02ed9d693a074039d026cf4ea4240b40f7d581ac802018054600160a060020a0319163317905580546040805160208381028201810190925282815261193b939092909183018282801561188557602002820191906000526020600020905b815481526020019060010190808311611871575b5050505050600e8054806020026020016040519081016040528092919081815260200182805480156118d657602002820191906000526020600020905b8154815260200190600101908083116118c2575b5050505050600f80548060200260200160405190810160405280929190818152602001828054801561193157602002820191906000526020600020905b8154600160a060020a03168152600190910190602001808311611913575b505050505061255e565b8051600d90600090600e90829061195990600f906020880190612c73565b5050845161196c91906020870190612cd4565b5050835161197f91906020860190612cd4565b50505050505050565b600454600160a060020a031681565b60115481565b600160a060020a03831660009081526006602052604081205481908311611a665750600160a060020a0380841660008181526006602090815260408083208054958a1680855282852080548a81039091559486905281548901909155815188815291519390950194927fddf252ad1be2c89b69c2b068fc378daa952ba7f163c4a11628f55a4df523b3ef929181900390910190a3600160a060020a03808516600090815260066020526040808220549288168252902054018114611a5d57fe5b60019150610f17565b60009150610f17565b6060806060600060608060606000806000806000808f51995089604051908082528060200260200182016040528015611ab2578160200160208202803883390190505b50985089604051908082528060200260200182016040528015611adf578160200160208202803883390190505b50975089604051908082528060200260200182016040528015611b0c578160200160208202803883390190505b509650600095505b89861015611bc4578f86815181101515611b2a57fe5b906020019060200201518987815181101515611b4257fe5b602090810290910101528e518f9087908110611b5a57fe5b906020019060200201518887815181101515611b7257fe5b602090810290910101528d518e9087908110611b8a57fe5b906020019060200201518787815181101515611ba257fe5b600160a060020a03909216602092830290910190910152600190950194611b14565b600094505b89851015611d73578460010193505b89841015611d68578884815181101515611bee57fe5b906020019060200201518986815181101515611c0657fe5b906020019060200201511115611d5d578884815181101515611c2457fe5b9060200190602002015192508885815181101515611c3e57fe5b906020019060200201518985815181101515611c5657fe5b60209081029091010152885183908a9087908110611c7057fe5b602090810290910101528751889085908110611c8857fe5b9060200190602002015191508785815181101515611ca257fe5b906020019060200201518885815181101515611cba57fe5b6020908102909101015287518290899087908110611cd457fe5b602090810290910101528651879085908110611cec57fe5b9060200190602002015190508685815181101515611d0657fe5b906020019060200201518785815181101515611d1e57fe5b600160a060020a0390921660209283029091019091015286518190889087908110611d4557fe5b600160a060020a039092166020928302909101909101525b600190930192611bd8565b600190940193611bc9565b50969e959d50939b50939950505050505050505050565b60016010819055600090818080805b60008560ff16118015611dae5750600a546000105b8015611dbc5750600d546000105b156125565760009050600d6000815481101515611dd557fe5b9060005260206000200154600a6000815481101515611df057fe5b906000526020600020015411151561254c57600e80546000908110611e1157fe5b9060005260206000200154600b6000815481101515611e2c57fe5b90600052602060002001541415612110576002600d6000815481101515611e4f57fe5b9060005260206000200154600a6000815481101515611e6a57fe5b906000526020600020015401811515611e7f57fe5b049350600b6000815481101515611e9257fe5b90600052602060002001549250611ea98484612862565b60021415611fe3578091505b600e5460001901821015611f9d57600e805460018401908110611ed457fe5b9060005260206000200154600e83815481101515611eee57fe5b600091825260209091200155600d805460018401908110611f0b57fe5b9060005260206000200154600d83815481101515611f2557fe5b600091825260209091200155600f805460018401908110611f4257fe5b600091825260209091200154600f8054600160a060020a039092169184908110611f6857fe5b60009182526020909120018054600160a060020a031916600160a060020a039290921691909117905560019190910190611eb5565b600e805490611fb0906000198301612d0e565b50600d805490611fc4906000198301612d0e565b50600f805490611fd8906000198301612d0e565b506010805460010190555b8091505b600b54600019018210156120cf57600b80546001840190811061200657fe5b9060005260206000200154600b8381548110151561202057fe5b600091825260209091200155600a80546001840190811061203d57fe5b9060005260206000200154600a8381548110151561205757fe5b600091825260209091200155600c80546001840190811061207457fe5b600091825260209091200154600c8054600160a060020a03909216918490811061209a57fe5b60009182526020909120018054600160a060020a031916600160a060020a039290921691909117905560019190910190611fe7565b600b8054906120e2906000198301612d0e565b50600a8054906120f6906000198301612d0e565b50600c80549061210a906000198301612d0e565b50612547565b600e8054600090811061211f57fe5b9060005260206000200154600b600081548110151561213a57fe5b9060005260206000200154111561234b57600e8054600090811061215a57fe5b9060005260206000200154600b600081548110151561217557fe5b90600052602060002001540395506002600d600081548110151561219557fe5b9060005260206000200154600a60008154811015156121b057fe5b9060005260206000200154018115156121c557fe5b049350600e60008154811015156121d857fe5b906000526020600020015492506121ef8484612862565b60021415612329578091505b600e54600019018210156122e357600e80546001840190811061221a57fe5b9060005260206000200154600e8381548110151561223457fe5b600091825260209091200155600d80546001840190811061225157fe5b9060005260206000200154600d8381548110151561226b57fe5b600091825260209091200155600f80546001840190811061228857fe5b600091825260209091200154600f8054600160a060020a0390921691849081106122ae57fe5b60009182526020909120018054600160a060020a031916600160a060020a0392909216919091179055600191909101906121fb565b600e8054906122f6906000198301612d0e565b50600d80549061230a906000198301612d0e565b50600f80549061231e906000198301612d0e565b506010805460010190555b85600b600081548110151561233a57fe5b600091825260209091200155612547565b600b8054600090811061235a57fe5b9060005260206000200154600e600081548110151561237557fe5b90600052602060002001540395506002600d600081548110151561239557fe5b9060005260206000200154600a60008154811015156123b057fe5b9060005260206000200154018115156123c557fe5b049350600b60008154811015156123d857fe5b906000526020600020015492506123ef8484612862565b600214156124155785600e600081548110151561240857fe5b6000918252602090912001555b8091505b600b546000190182101561250157600b80546001840190811061243857fe5b9060005260206000200154600b8381548110151561245257fe5b600091825260209091200155600a80546001840190811061246f57fe5b9060005260206000200154600a8381548110151561248957fe5b600091825260209091200155600c8054600184019081106124a657fe5b600091825260209091200154600c8054600160a060020a0390921691849081106124cc57fe5b60009182526020909120018054600160a060020a031916600160a060020a039290921691909117905560019190910190612419565b600b805490612514906000198301612d0e565b50600a805490612528906000198301612d0e565b50600c80549061253c906000198301612d0e565b506010805460010190555b612551565b600094505b611d99565b505050505050565b6060806060600060608060606000806000806000808f519950896040519080825280602002602001820160405280156125a1578160200160208202803883390190505b509850896040519080825280602002602001820160405280156125ce578160200160208202803883390190505b509750896040519080825280602002602001820160405280156125fb578160200160208202803883390190505b509650600095505b898610156126b3578f8681518110151561261957fe5b90602001906020020151898781518110151561263157fe5b602090810290910101528e518f908790811061264957fe5b90602001906020020151888781518110151561266157fe5b602090810290910101528d518e908790811061267957fe5b90602001906020020151878781518110151561269157fe5b600160a060020a03909216602092830290910190910152600190950194612603565b600094505b89851015611d73578460010193505b898410156128575788848151811015156126dd57fe5b9060200190602002015189868151811015156126f557fe5b90602001906020020151101561284c57888481518110151561271357fe5b906020019060200201519250888581518110151561272d57fe5b90602001906020020151898581518110151561274557fe5b60209081029091010152885183908a908790811061275f57fe5b60209081029091010152875188908590811061277757fe5b906020019060200201519150878581518110151561279157fe5b9060200190602002015188858151811015156127a957fe5b60209081029091010152875182908990879081106127c357fe5b6020908102909101015286518790859081106127db57fe5b90602001906020020151905086858151811015156127f557fe5b90602001906020020151878581518110151561280d57fe5b600160a060020a039092166020928302909101909101528651819088908790811061283457fe5b600160a060020a039092166020928302909101909101525b6001909301926126c7565b6001909401936126b8565b600c80546000916016918391829169021e19e0c9bab240000091908390811061288757fe5b6000918252602082200154600f8054600160a060020a0390921692909181106128ac57fe5b6000918252602091829020015460105460408051606060020a600160a060020a03968716810282870152959093169490940260348301524260488301526068808301919091528351808303909101815260889091019283905280519092918291908401908083835b602083106129335780518252601f199092019160209182019101612914565b6001836020036101000a0380198251168184511680821785525050505050509050019150506040518091039020600190049250856006600060086000600c600081548110151561297f57fe5b6000918252602080832090910154600160a060020a039081168452838201949094526040928301822054909316845291830193909352910190205410612be657612a0e60086000600c60008154811015156129d657fe5b6000918252602080832090910154600160a060020a039081168452908301939093526040909101902054600354908216911688610e6b565b50600354600160a060020a03166000908152600760205260408120600f80548993919082908110612a3b57fe5b6000918252602080832090910154600160a060020a0390811684528382019490945260409283018220805490950190945560035490921682526007909252908120600c80548993919082908110612a8e57fe5b6000918252602080832090910154600160a060020a031683528201929092526040019020805490910190558083811515612ac457fe5b0692506001601260c0604051908101604052808a8152602001898152602001600c6000815481101515612af357fe5b6000918252602080832090910154600160a060020a03168352600f805493909101929091908110612b2057fe5b6000918252602080832090910154600160a060020a0390811684528382018a9052604093840183905285546001818101885596845282842086516006830290910190815586840151818901558686015160028083018054928616600160a060020a03199384161790556060890151600384018054919096169216919091179093556080870151600482015560a090960151600590960195909555959093039093018084526013835281842088905587845260149092529091208190559095509150612beb565b600194505b5050505092915050565b828054600181600116156101000203166002900490600052602060002090601f016020900481019282601f10612c3657805160ff1916838001178555612c63565b82800160010185558215612c63579182015b82811115612c63578251825591602001919060010190612c48565b50612c6f929150612d2e565b5090565b828054828255906000526020600020908101928215612cc8579160200282015b82811115612cc85782518254600160a060020a031916600160a060020a03909116178255602090920191600190910190612c93565b50612c6f929150612d4b565b828054828255906000526020600020908101928215612c635791602002820182811115612c63578251825591602001919060010190612c48565b815481835581811115610e6657600083815260209020610e669181019083015b612d4891905b80821115612c6f5760008155600101612d34565b90565b612d4891905b80821115612c6f578054600160a060020a0319168155600101612d5156004e6f74204170706c69636174696f6e204e6f646500000000000000000000000053656e646572206e6f7420417574686f72697365642e000000000000000000008c5be1e5ebec7d5bd14f71427d1e84f3dd0314c0f7b2291e5b200ac8c7c3b925cc16f5dbb4873280815c1ee09dbd06736cffcc184412cf7a71a0fdb75d397ca5a165627a7a723058209481ca87a02af9d83a7cd3095fdd7a17a65ea9d7e81f2a003ed22eabdd3e72ed0029",
  "source": "pragma solidity ^0.4.25;\n\nimport \"./ERC20.sol\";\n\ncontract DoubleSidedAuction is ERC20 {\n    /*Declaration of variables*/\n    /*The struct below creates users to participate in peer energy trading*/\n    struct User {\n        uint typeOfUser; //1 for consumer 2 for prosumer, 3 for generator\n\t\tuint gridNo; //grid number of the user\n        uint consumedEnergy;//Energy consumed by the user\n        uint producedEnergy;//Energy produced\n        uint time;//summed time before balancing grid \n        uint[] BQty;// quatity of energy bought from market\n        uint[][] SQty;// quantity of energy sold which it suppose to produce\n        uint[][] SPrice;//price of each quatity sold\n        uint[]sellcount;//used to count number of participants it has satified with energy produced\n        uint userDebt;\n        uint RelayState;\n        uint UtilityDebt;\n    }\n\n    /*This struct variables will be used to recieve all matched bids and ask \n    Avgprice: Average price after the bids and ask was matched\n    AvgQty: average quantity of matched bids\n    Seller: user address of the Seller\n    Buyer: user address of the Buyer\n    RfId: reference number of the bids\n    countconfirm: used to confirm match payment*/\n    //address useraddr;\n    struct MergedAskBid {\n        uint AvgPrice;\n        uint AvgQty;\n        address Seller;\n        address Buyer;\n        uint RfId;\n        uint countconfirm;\n    }\n\n    User[] public users;\n    //modifiers and their functions\n\n    /* This modifier is use for functions that only the smart meter can call*/\n    modifier OnlySmartMeter(address _addr){\n        require(_addr==userIDtoAddress[userAddresstoID[_addr]],\"Not Smart Meter\");\n        _;\n    }\n\n    /* This modifier is use for functions that only the user Application phone can call\n    can call*/\n    modifier OnlyAppNode (address _addrr){\n        require(AppToSmartmeter[_addrr]== userIDtoAddress[userAddresstoID[AppToSmartmeter[_addrr]]],\n        \"Not Application Node\");\n        _;\n    }\n\n    /* This modifier is use for functions that only the Generator Application phone can call\n    can call*/\n    modifier OnlyUtility(address _UtilityAddr){\n        require(_UtilityAddr==Utility,\n        \"Not Generator Application Node\");\n        _;\n    }\n\n    //This is use to give restrictions on the token a user can bid\n    modifier AskTkrequirements (uint _qty){\n        require(balanceOf[AppToSmartmeter[msg.sender]] >= _qty + MinBal,\n        \"Not Enough balance\");\n        _;\n    }\n    /*Below is array variables for sell price, sell quatity and addres of user*/\n    /*Abbreviation was chosen for the six variable below because they were used in many places\n    Hence the need to reduce code length*/\n    uint[] Sp;//Sell price\n    uint[] Sq;//Sell quantity\n    address[] SAddr;//Seller adress\n\n    /*Below is the variable declaration for buy price, buy quantity and buyer addresse*/\n    uint[] Bp;//Buy price\n    uint[] Bq;//Buy quantity\n    address[] BAddr; // Buyer address\n    uint r1;//This is used to count how many transactions was done after each matching\n\n    uint public MinBal =500; //minimum balance a user need to leave in the account while selling token\n\n    MergedAskBid[] public ArrayWonBid;\n\n    mapping (uint => uint) public RefId;//reference id for each of matched bid\n    mapping (uint => uint) internal RefIndex;// index used to call values in ArrayWonBid\n\n    mapping (uint => address) public userIDtoAddress; \t// This is used to map the user's ID to the user's address throughout the entire network\n    mapping (address => uint) public userAddresstoID; \t// This is used to map the user's address to his ID throughout the entire network (NOT the ID within the microgrid)\n\n\n    /* Changes the minimum balance required before each user can sell token*/\n    function changeMinBalance(uint _Min) public onlyOwner()  {\n        MinBal = _Min;  \n    } \n\n\n    /*This function is used to bid to sell token\n    _price: sell price per token\n    _Qty: quantity to sell\n    This function basically pushes the bid into the required arrays and sort them*/\n    function placeSellTokenOffer(uint _price, uint _Qty) public OnlyAppNode (msg.sender) AskTkrequirements (_Qty){  \n        approve(ExchangeAddr, _Qty);\n        Sp.push(_price);\n        Sq.push(_Qty);\n        SAddr.push(msg.sender);\n        (Sp,Sq, SAddr) = _sortSellPrices(Sp,Sq, SAddr);\n    }\n\n\n    /*This function is used to bid to buy token\n    _price: buy price per token\n    _Qty: quantity to buy\n    This function basically pushes the ask into the required arrays and sort them*/\n    function placeBuyTokenOffer(uint _price, uint _Qty) public  OnlyAppNode (msg.sender) {  \n        Bp.push(_price);\n        Bq.push(_Qty);\n        BAddr.push(msg.sender);\n        (Bp,Bq, BAddr) = _sortBuyPrices(Bp,Bq, BAddr);\n\n        return;\n    }\n\n\n    /*This function is used to view the bid*/\n    function viewSellTokenOffers() public view returns (uint [] Sell_Price, uint [] Sell_Qty) {\n        return (Sp, Sq); \n    }\n\n\n    /*This function is used to view ask*/\n    function viewBuyTokenOffers() public view returns (uint [] Buy_Price, uint [] Buy_Qty) {\n        return (Bp, Bq); \n    }\n\n\n    /*This function is used to sort the given arrays with the least price as the index zero\n    till the highest price*/\n    function _sortSellPrices(uint[] Arr_, uint[] qty_, address[]  _sAddr) internal pure \n        returns (uint [], uint [], address[]) {\n        uint256 l = Arr_.length;\n        uint[] memory Listsell = new uint[] (l);\n        uint[] memory Listqty = new uint[] (l);\n        address[] memory sAddr = new address[] (l);  \n        for(uint i=0; i<l; i++){\n            Listsell[i] = Arr_[i];\n            Listqty[i] = qty_[i];\n            sAddr[i] = _sAddr[i];\n        }\n        for(uint k=0; k<l; k++){\n            for (uint j=k+1; j<l; j++){\n                if (Listsell[k]>Listsell[j]){\n                    uint temp = Listsell[j];\n                    Listsell[j] = Listsell[k];\n                    Listsell[k] = temp;\n                    uint tempq = Listqty[j];\n                    Listqty[j] = Listqty[k];\n                    Listqty[k] = tempq;\n                    address tempad = sAddr[j];\n                    sAddr[j] = sAddr[k];\n                    sAddr[k] = tempad;\n                }\n            }  \n        }\n        return (Listsell, Listqty, sAddr); \n    }\n\n\n    /*This function is used to sort the given arrays with the highest price as the index zero\n    till the lowest price*/\n    function _sortBuyPrices(uint[] Arr_, uint[] qty_, address[] _bAddr) internal pure \n        returns (uint [], uint [], address[]) {\n        uint256 l = Arr_.length;\n        uint[] memory ListbuyP = new uint[] (l);\n        uint[] memory ListbuyQ = new uint[] (l);\n        address[] memory bAddr = new address[] (l);  \n        for(uint i=0; i<l; i++){\n            ListbuyP[i] = Arr_[i];\n            ListbuyQ[i] = qty_[i];\n            bAddr[i] = _bAddr[i];\n        }\n        for(uint k=0; k<l; k++){\n            for (uint j=k+1; j<l; j++){\n                if (ListbuyP[k]<ListbuyP[j]){\n                    uint temp = ListbuyP[j];\n                    ListbuyP[j] = ListbuyP[k];\n                    ListbuyP[k] = temp;\n                    uint tempq = ListbuyQ[j];\n                    ListbuyQ[j] = ListbuyQ[k];\n                    ListbuyQ[k] = tempq;\n                    address tempas = bAddr[j];\n                    bAddr[j] = bAddr[k];\n                    bAddr[k] = tempas;\n                }\n            }  \n        }\n        return (ListbuyP, ListbuyQ, bAddr);\n    }\n\n\n    //This is used to call the function MatchBidAsk to match all bids and ask\n    function clearTokenOffers() public onlyAlarm() {   //To be called by ethereum alarm clock\n        _matchBuyAndSellOffers();\n    }   \n\n\n    /*This function is used Transfer token from seller to owner after the matching\n    The token remains in the account of the owner till both participants confirms recipient\n    and tranfer of fiered currency*/\n    function _assignMatchedPrices( uint _Avp, uint _Avq) internal returns (uint){\n        uint RefDigits = 22;uint ref;uint _id;\n        uint RefModulus = 10 ** RefDigits; \n        ref = uint(keccak256(abi.encodePacked(SAddr[0],BAddr[0],now,r1)));\n        if (balanceOf[AppToSmartmeter[SAddr[0]]]>=_Avq){\n\t        ERC20.transferFrom(AppToSmartmeter[SAddr[0]], ExchangeAddr, _Avq);\n            ERC20.allowance[ExchangeAddr][BAddr[0]] += _Avq;\n            ERC20.allowance[ExchangeAddr][SAddr[0]] += _Avq; \n            ref = ref % RefModulus;\n\t\t    _id= ArrayWonBid.push(MergedAskBid(_Avp, _Avq,SAddr[0],BAddr[0],ref, 0 ))-1;\n\t\t    RefId[_id] = ref;\n\t        RefIndex[ref]=_id;\n\t\t\treturn 2;\n\t\t}\n\t\telse{\n\t\t    return 1;\n\t\t}\n    }\n\n\n    /*This function matches the bids and asks from the list index till the \n    price do not conform to market agreement(sell price<=buyer price)*/\n    function _matchBuyAndSellOffers() internal  {\n        uint df;\n        uint8 y=1;//used to know end of while loop\n        uint Avp;//average price\n        uint Avq;//average quatity\n        r1 =1;\n        while(y>0 && Sp.length>0 && Bp.length>0){\n\t        uint i;   uint index =0;\n\t        if(Sp[0]<= Bp[0]) {\n\t            if (Sq[0] == Bq[0]){\n\t\t            Avp = (Sp[0]+Bp[0])/2;\n\t\t            Avq= Sq[0];\n\t\t            if (_assignMatchedPrices( Avp, Avq)==2){\n                        for (i = index; i<Bq.length-1; i++){\n                            Bq[i] = Bq[i+1];\n                            Bp[i] = Bp[i+1];\n                            BAddr[i] = BAddr[i+1];\n                        }\n                        Bq.length--; Bp.length--; BAddr.length--;r1++;\n\t\t\t\t\t}  \n\t                for (i = index; i<Sq.length-1; i++){\n                        Sq[i] = Sq[i+1];\n                        Sp[i] = Sp[i+1];\n                        SAddr[i] = SAddr[i+1];\n                    }\t\t\t\n                    Sq.length--; Sp.length--; SAddr.length--;\n                }\n\t\t        else if (Sq[0] > Bq[0]){\n\t\t            df= Sq[0] - Bq[0];\n\t                Avp = (Sp[0]+Bp[0])/2;\n\t\t            Avq= Bq[0];\n                    if (_assignMatchedPrices( Avp, Avq)==2){\n\t\t                for ( i = index; i<Bq.length-1; i++){\n                            Bq[i] = Bq[i+1];\n                            Bp[i] = Bp[i+1];\n                            BAddr[i] = BAddr[i+1];\n                        }\n\t\t\t\t\t    Bq.length--; Bp.length--; BAddr.length--; r1++;\n                    }\n\t\t\t\t\tSq[0]= df; \n                }\n\t\t        // comment\n\t            else{\n\t\t            df= Bq[0] - Sq[0];\n\t        \t    Avp = (Sp[0]+Bp[0])/2;\n\t\t            Avq= Sq[0];\n\t\t            if (_assignMatchedPrices( Avp, Avq)==2){\n\t            \t    Bq[0]= df; \n\t\t\t\t\t}\n\t            \tfor (i = index; i<Sq.length-1; i++){\n                        Sq[i] = Sq[i+1];\n                        Sp[i] = Sp[i+1];\n                        SAddr[i] = SAddr[i+1];\n                    }\n\t                Sq.length--; Sp.length--; SAddr.length--;r1++;\n\t\t        }\n        \t}\n        \telse{\n            \ty=0;\n        \t}\n        }\n    }\n\n\n    /*This function is used by seller to confirm recipient of fiered currency*/\n    function sellerConfirmation(uint _RefId) public OnlyAppNode (msg.sender)  returns(bool success) {\n        if(ArrayWonBid[RefIndex[_RefId]].Seller == msg.sender){\n            if (ArrayWonBid[RefIndex[_RefId]].countconfirm ==1){\n                transferFrom(ExchangeAddr, \n                            AppToSmartmeter[ArrayWonBid[RefIndex[_RefId]].Buyer],\n                            ArrayWonBid[RefIndex[_RefId]].AvgQty);\n                ERC20.allowance[ExchangeAddr][ArrayWonBid[RefIndex[_RefId]].Buyer] -= \n                ArrayWonBid[RefIndex[_RefId]].AvgQty;\n                ArrayWonBid[RefIndex[_RefId]].countconfirm =3;\n                return true; \n            }\n            else if(ArrayWonBid[RefIndex[_RefId]].countconfirm ==0) {\n               ArrayWonBid[RefIndex[_RefId]].countconfirm =2;\n               return true;\n            }\n            else{\n               return false;\n            }\n        }\n        else {\n            return false;\n        }\n    }\n\n\n    /*This function is used by buyer to confirm transfer of fiered currency*/\n    function buyerConfirmation(uint _RefId) public OnlyAppNode (msg.sender) returns(bool success){\n        if (ArrayWonBid[RefIndex[_RefId]].Buyer == msg.sender){\n            if (ArrayWonBid[RefIndex[_RefId]].countconfirm ==2){\n                transferFrom(ExchangeAddr, \n                            AppToSmartmeter[ArrayWonBid[RefIndex[_RefId]].Buyer],\n                            ArrayWonBid[RefIndex[_RefId]].AvgQty);\n                ERC20.allowance[ExchangeAddr][ArrayWonBid[RefIndex[_RefId]].Seller] -= \n                ArrayWonBid[RefIndex[_RefId]].AvgQty;\n                ArrayWonBid[RefIndex[_RefId]].countconfirm =3;  \n                return true;\n           }\n           else if(ArrayWonBid[RefIndex[_RefId]].countconfirm ==0) {\n                ArrayWonBid[RefIndex[_RefId]].countconfirm =1;\n                return true;\n           }\n           else{\n               return false;\n           }\n        }\n        else {\n            return false;\n        }\n    }\n}\n",
  "sourcePath": "D:\\blockchain\\react-box-master\\react-box-master\\truffle\\contracts\\DoubleSidedAuction.sol",
  "compiler": {
    "name": "solc",
    "version": "0.4.25+commit.59dbf8f1.Emscripten.clang"
  },
  "schemaVersion": "3.4.16",
  "updatedAt": "2024-07-22T08:03:29.162Z",
  "networkType": "ethereum",
  "devdoc": {
    "methods": {
      "UpdateAllowance(address,uint256)": {
        "params": {
          "_spender": "The address authorized to spend",
          "_value": "the max amount they can spend"
        }
      },
      "approve(address,uint256)": {
        "params": {
          "_spender": "The address authorized to spend",
          "_value": "the max amount they can spend, this value will be added to initial approroved value if any"
        }
      },
      "burn(uint256)": {
        "params": {
          "_value": "the amount of money to burn"
        }
      },
      "transfer(address,uint256)": {
        "params": {
          "_to": "The address of the recipient",
          "_value": "the amount to send"
        }
      },
      "transferFrom(address,address,uint256)": {
        "params": {
          "_from": "The address of the sender",
          "_to": "The address of the recipient",
          "_value": "the amount to send"
        }
      }
    }
  },
  "userdoc": {
    "methods": {
      "UpdateAllowance(address,uint256)": {
        "notice": "update allowance for other address    * Allows `_spender` to spend no more than `_value` tokens on your behalf"
      },
      "approve(address,uint256)": {
        "notice": "Set allowance for other address     * Allows `_spender` to spend no more than `_value` tokens on your behalf"
      },
      "burn(uint256)": {
        "notice": "Destroy tokens     * Remove `_value` tokens from the system irreversibly"
      },
      "transfer(address,uint256)": {
        "notice": "Transfer tokens     * Send `_value` tokens to `_to` from your account"
      },
      "transferFrom(address,address,uint256)": {
        "notice": "Transfer tokens from other address     * Send `_value` tokens to `_to` on behalf of `_from`"
      }
    }
  }
}