{
  "contractName": "ERC20",
  "abi": [
    {
      "constant": true,
      "inputs": [],
      "name": "name",
      "outputs": [
        {
          "name": "",
          "type": "string"
        }
      ],
      "payable": false,
      "stateMutability": "view",
      "type": "function"
    },
    {
      "constant": true,
      "inputs": [],
      "name": "totalSupply",
      "outputs": [
        {
          "name": "",
          "type": "uint256"
        }
      ],
      "payable": false,
      "stateMutability": "view",
      "type": "function"
    },
    {
      "constant": true,
      "inputs": [],
      "name": "decimals",
      "outputs": [
        {
          "name": "",
          "type": "uint8"
        }
      ],
      "payable": false,
      "stateMutability": "view",
      "type": "function"
    },
    {
      "constant": true,
      "inputs": [
        {
          "name": "",
          "type": "address"
        }
      ],
      "name": "balanceOf",
      "outputs": [
        {
          "name": "",
          "type": "uint256"
        }
      ],
      "payable": false,
      "stateMutability": "view",
      "type": "function"
    },
    {
      "constant": true,
      "inputs": [],
      "name": "symbol",
      "outputs": [
        {
          "name": "",
          "type": "string"
        }
      ],
      "payable": false,
      "stateMutability": "view",
      "type": "function"
    },
    {
      "constant": true,
      "inputs": [],
      "name": "ExchangeAddr",
      "outputs": [
        {
          "name": "",
          "type": "address"
        }
      ],
      "payable": false,
      "stateMutability": "view",
      "type": "function"
    },
    {
      "constant": true,
      "inputs": [],
      "name": "Utility",
      "outputs": [
        {
          "name": "",
          "type": "address"
        }
      ],
      "payable": false,
      "stateMutability": "view",
      "type": "function"
    },
    {
      "inputs": [],
      "payable": false,
      "stateMutability": "nonpayable",
      "type": "constructor"
    },
    {
      "anonymous": false,
      "inputs": [
        {
          "indexed": true,
          "name": "from",
          "type": "address"
        },
        {
          "indexed": true,
          "name": "to",
          "type": "address"
        },
        {
          "indexed": false,
          "name": "value",
          "type": "uint256"
        }
      ],
      "name": "Transfer",
      "type": "event"
    },
    {
      "anonymous": false,
      "inputs": [
        {
          "indexed": true,
          "name": "_owner",
          "type": "address"
        },
        {
          "indexed": true,
          "name": "_spender",
          "type": "address"
        },
        {
          "indexed": false,
          "name": "_value",
          "type": "uint256"
        }
      ],
      "name": "Approval",
      "type": "event"
    },
    {
      "anonymous": false,
      "inputs": [
        {
          "indexed": true,
          "name": "from",
          "type": "address"
        },
        {
          "indexed": false,
          "name": "value",
          "type": "uint256"
        }
      ],
      "name": "Burn",
      "type": "event"
    },
    {
      "anonymous": false,
      "inputs": [
        {
          "indexed": true,
          "name": "from",
          "type": "address"
        },
        {
          "indexed": false,
          "name": "value",
          "type": "uint256"
        }
      ],
      "name": "Mined",
      "type": "event"
    },
    {
      "constant": false,
      "inputs": [
        {
          "name": "tokenName",
          "type": "string"
        },
        {
          "name": "tokenSymbol",
          "type": "string"
        }
      ],
      "name": "ChangeTokenSymbName",
      "outputs": [],
      "payable": false,
      "stateMutability": "nonpayable",
      "type": "function"
    },
    {
      "constant": false,
      "inputs": [
        {
          "name": "_to",
          "type": "address"
        },
        {
          "name": "_value",
          "type": "uint256"
        }
      ],
      "name": "transfer",
      "outputs": [
        {
          "name": "success",
          "type": "bool"
        }
      ],
      "payable": false,
      "stateMutability": "nonpayable",
      "type": "function"
    },
    {
      "constant": false,
      "inputs": [
        {
          "name": "_from",
          "type": "address"
        },
        {
          "name": "_to",
          "type": "address"
        },
        {
          "name": "_value",
          "type": "uint256"
        }
      ],
      "name": "transferFrom",
      "outputs": [
        {
          "name": "success",
          "type": "bool"
        }
      ],
      "payable": false,
      "stateMutability": "nonpayable",
      "type": "function"
    },
    {
      "constant": false,
      "inputs": [
        {
          "name": "_spender",
          "type": "address"
        },
        {
          "name": "_value",
          "type": "uint256"
        }
      ],
      "name": "approve",
      "outputs": [
        {
          "name": "success",
          "type": "bool"
        }
      ],
      "payable": false,
      "stateMutability": "nonpayable",
      "type": "function"
    },
    {
      "constant": false,
      "inputs": [
        {
          "name": "_spender",
          "type": "address"
        },
        {
          "name": "_value",
          "type": "uint256"
        }
      ],
      "name": "UpdateAllowance",
      "outputs": [
        {
          "name": "success",
          "type": "bool"
        }
      ],
      "payable": false,
      "stateMutability": "nonpayable",
      "type": "function"
    },
    {
      "constant": false,
      "inputs": [
        {
          "name": "_value",
          "type": "uint256"
        }
      ],
      "name": "AddToken",
      "outputs": [
        {
          "name": "success",
          "type": "bool"
        }
      ],
      "payable": false,
      "stateMutability": "nonpayable",
      "type": "function"
    },
    {
      "constant": false,
      "inputs": [
        {
          "name": "_value",
          "type": "uint256"
        }
      ],
      "name": "burn",
      "outputs": [
        {
          "name": "success",
          "type": "bool"
        }
      ],
      "payable": false,
      "stateMutability": "nonpayable",
      "type": "function"
    },
    {
      "constant": false,
      "inputs": [
        {
          "name": "_from",
          "type": "address"
        },
        {
          "name": "_value",
          "type": "uint256"
        }
      ],
      "name": "burnFrom",
      "outputs": [
        {
          "name": "success",
          "type": "bool"
        }
      ],
      "payable": false,
      "stateMutability": "nonpayable",
      "type": "function"
    },
    {
      "constant": true,
      "inputs": [
        {
          "name": "addr",
          "type": "address"
        }
      ],
      "name": "CheckMybalance",
      "outputs": [
        {
          "name": "",
          "type": "uint256"
        }
      ],
      "payable": false,
      "stateMutability": "view",
      "type": "function"
    }
  ],
  "bytecode": "0x60c0604052600b60808190527f456e6572677920436f696e00000000000000000000000000000000000000000060a090815261003e91600091906100f2565b506040805180820190915260028082527f45430000000000000000000000000000000000000000000000000000000000006020909201918252610083916001916100f2565b506002805460ff191690557e3899162693736ac531a5a58f1fbb4b746504382ca7e40000000000000000006005553480156100bd57600080fd5b506002805461010060a860020a031916336101008102919091179091556005546000918252600660205260409091205561018d565b828054600181600116156101000203166002900490600052602060002090601f016020900481019282601f1061013357805160ff1916838001178555610160565b82800160010185558215610160579182015b82811115610160578251825591602001919060010190610145565b5061016c929150610170565b5090565b61018a91905b8082111561016c5760008155600101610176565b90565b610b0b8061019c6000396000f3006080604052600436106100cc5763ffffffff60e060020a60003504166306fdde0381146100d1578063095ea7b31461015b57806318160ddd14610193578063201a704e146101ba57806323b872dd14610253578063313ce5671461027d57806342966c68146102a8578063590f742c146102c05780635a754f89146102e45780635bcb5fd41461030557806370a082311461031d57806379cc67901461033e57806395d89b411461036257806398cc42db14610377578063a9059cbb146103a8578063eda46dd9146103cc575b600080fd5b3480156100dd57600080fd5b506100e66103e1565b6040805160208082528351818301528351919283929083019185019080838360005b83811015610120578181015183820152602001610108565b50505050905090810190601f16801561014d5780820380516001836020036101000a031916815260200191505b509250505060405180910390f35b34801561016757600080fd5b5061017f600160a060020a036004351660243561046f565b604080519115158252519081900360200190f35b34801561019f57600080fd5b506101a86104c6565b60408051918252519081900360200190f35b3480156101c657600080fd5b506040805160206004803580820135601f810184900484028501840190955284845261025194369492936024939284019190819084018382808284375050604080516020601f89358b018035918201839004830284018301909452808352979a9998810197919650918201945092508291508401838280828437509497506104cc9650505050505050565b005b34801561025f57600080fd5b5061017f600160a060020a036004358116906024351660443561054d565b34801561028957600080fd5b50610292610601565b6040805160ff9092168252519081900360200190f35b3480156102b457600080fd5b5061017f60043561060a565b3480156102cc57600080fd5b5061017f600160a060020a0360043516602435610670565b3480156102f057600080fd5b506101a8600160a060020a03600435166106c4565b34801561031157600080fd5b5061017f6004356106ef565b34801561032957600080fd5b506101a8600160a060020a03600435166107a1565b34801561034a57600080fd5b5061017f600160a060020a03600435166024356107b3565b34801561036e57600080fd5b506100e6610884565b34801561038357600080fd5b5061038c6108de565b60408051600160a060020a039092168252519081900360200190f35b3480156103b457600080fd5b5061017f600160a060020a03600435166024356108ed565b3480156103d857600080fd5b5061038c610903565b6000805460408051602060026001851615610100026000190190941693909304601f810184900484028201840190925281815292918301828280156104675780601f1061043c57610100808354040283529160200191610467565b820191906000526020600020905b81548152906001019060200180831161044a57829003601f168201915b505050505081565b336000818152600760209081526040808320600160a060020a03871680855290835281842080548701905581518681529151939490939092600080516020610aa0833981519152928290030190a350600192915050565b60055481565b6002546101009004600160a060020a03163314610521576040805160e560020a62461bcd0281526020600482015260166024820152600080516020610a80833981519152604482015290519081900360640190fd5b81516105349060009060208501906109e4565b5080516105489060019060208401906109e4565b505050565b6003546000908190600160a060020a031633148061057a57506002546101009004600160a060020a031633145b156105945761058a858585610912565b90508091506105f9565b600160a060020a03851660009081526007602090815260408083203384529091529020548311156105c457600080fd5b600160a060020a038516600090815260076020908152604080832033845290915290208054849003905561058a858585610912565b509392505050565b60025460ff1681565b3360009081526006602052604081205482111561062657600080fd5b336000818152600660209081526040918290208054869003905560058054869003905581518581529151600080516020610ac08339815191529281900390910190a2506001919050565b336000818152600760209081526040808320600160a060020a03871680855290835281842086905581518681529151939490939092600080516020610aa0833981519152928290030190a350600192915050565b600160a060020a03908116600090815260086020908152604080832054909316825260069052205490565b6002546000906101009004600160a060020a03163314610747576040805160e560020a62461bcd0281526020600482015260166024820152600080516020610a80833981519152604482015290519081900360640190fd5b336000818152600660209081526040918290208054860190556005805486019055815185815291517f3ad10ba9777a3bc21180a465e5459861d07cbdb271af9a0f10c993b365b760f89281900390910190a2506001919050565b60066020526000908152604090205481565b6002546000906101009004600160a060020a0316331461080b576040805160e560020a62461bcd0281526020600482015260166024820152600080516020610a80833981519152604482015290519081900360640190fd5b600160a060020a03831660009081526006602052604090205482111561083057600080fd5b600160a060020a0383166000818152600660209081526040918290208054869003905560058054869003905581518581529151600080516020610ac08339815191529281900390910190a250600192915050565b60018054604080516020600284861615610100026000190190941693909304601f810184900484028201840190925281815292918301828280156104675780601f1061043c57610100808354040283529160200191610467565b600354600160a060020a031681565b6000806108fb338585610912565b949350505050565b600454600160a060020a031681565b600160a060020a038316600090815260066020526040812054819083116109db5750600160a060020a0380841660008181526006602090815260408083208054958a1680855282852080548a81039091559486905281548901909155815188815291519390950194927fddf252ad1be2c89b69c2b068fc378daa952ba7f163c4a11628f55a4df523b3ef929181900390910190a3600160a060020a038085166000908152600660205260408082205492881682529020540181146109d257fe5b600191506105f9565b600091506105f9565b828054600181600116156101000203166002900490600052602060002090601f016020900481019282601f10610a2557805160ff1916838001178555610a52565b82800160010185558215610a52579182015b82811115610a52578251825591602001919060010190610a37565b50610a5e929150610a62565b5090565b610a7c91905b80821115610a5e5760008155600101610a68565b90560053656e646572206e6f7420417574686f72697365642e000000000000000000008c5be1e5ebec7d5bd14f71427d1e84f3dd0314c0f7b2291e5b200ac8c7c3b925cc16f5dbb4873280815c1ee09dbd06736cffcc184412cf7a71a0fdb75d397ca5a165627a7a72305820ef605eb0b26aca2d29a7e3335019be67fc74caf1dcc8edc1f6ad172603ad56900029",
  "source": "pragma solidity ^0.4.25;\n\ncontract ERC20 {\n \n    // Public variables of the token\n    string public name = \"Energy Coin\";\n    string public symbol = \"EC\";\n    uint8 public decimals = 0;\n    address Owner;\n    address public ExchangeAddr;\n    address public Utility;\n    // 18 decimals is the strongly suggested default, avoid changing it\n    uint256 public totalSupply = 100000000000000000000000000000000000000000000000000000000000000000000000000;\n\n    // This creates an array with all balances\n    mapping (address => uint256) public balanceOf;\n    mapping (address => mapping (address => uint256)) allowance;\n    mapping (address => address) AppToSmartmeter;\n\n    /**\n    * Constructor \n    *\n    * Initializes contract with initial supply tokens to the creator of the contract\n    */\n    constructor() public {\n        Owner = msg.sender;\n        balanceOf[msg.sender]=totalSupply;\n    }  \n    \n    modifier onlyOwner() {\n        require(msg.sender == Owner,\n\t\t\"Sender not Authorised.\");\n        _;\n    }\n    \n    modifier onlyAlarm() {\n        require(msg.sender == ExchangeAddr,\n\t\t\"Sender not Authorised.\");\n        _;\n    }\n    \n\n    // This generates a public event on the blockchain that will notify clients\n    event Transfer(address indexed from, address indexed to, uint256 value);\n    // This generates a public event on the blockchain that will notify clients\n    event Approval(address indexed _owner, address indexed _spender, uint256 _value);\n    // This notifies clients about the amount burnt\n    event Burn(address indexed from, uint256 value);\n    event Mined(address indexed from, uint256 value);\n   \n    \n    function ChangeTokenSymbName (string tokenName, string tokenSymbol) public onlyOwner() {  \n        name = tokenName;                                   // Set the name for display purposes\n        symbol = tokenSymbol;                               // Set the symbol for display purposes\n    }\n\n\n    /**\n     * Internal transfer, only can be called by this contract\n     */\n    function _transfer(address _from, address _to, uint _value) internal returns(bool) {\n        // Check if the sender has enough\n        if(balanceOf[_from] >= _value){\n            // Check for overflows\n            uint previousBalances = balanceOf[_from] + balanceOf[_to];\n            // Subtract from the sender\n            balanceOf[_from] -= _value;\n            // Add the same to the recipient\n            balanceOf[_to] += _value;\n            emit Transfer(_from, _to, _value);\n            // Asserts are used to use static analysis to find bugs in your code. They should never fail\n            assert(balanceOf[_from] + balanceOf[_to] == previousBalances);\n            return true;\n        }\n        else{\n            return false;\n        }\n    }\n\n    /**\n     * Transfer tokens\n     *\n     * Send `_value` tokens to `_to` from your account\n     *\n     * @param _to The address of the recipient\n     * @param _value the amount to send\n     */\n    function transfer(address _to, uint256 _value) public  returns (bool success) {\n       bool  logic=_transfer(msg.sender, _to, _value);\n        return logic;\n    }\n\n    \n    /**\n     * Transfer tokens from other address\n     *\n     * Send `_value` tokens to `_to` on behalf of `_from`\n     *\n     * @param _from The address of the sender\n     * @param _to The address of the recipient\n     * @param _value the amount to send\n     */\n     //bool logic;\n    function transferFrom(address _from, address _to, uint256 _value) public  returns (bool success) {\n        bool logic;\n        if( msg.sender==ExchangeAddr || msg.sender== Owner){\n          logic= _transfer(_from, _to, _value);\n        return logic;  \n        }\n        else\n        {\n        require(_value <= allowance[_from][msg.sender]);     // Check allowance\n        allowance[_from][msg.sender] -= _value;\n        logic=_transfer(_from, _to, _value);\n        return logic;\n        }\n    }\n\n    \n    /**\n     * Set allowance for other address\n     *\n     * Allows `_spender` to spend no more than `_value` tokens on your behalf\n     *\n     * @param _spender The address authorized to spend\n     * @param _value the max amount they can spend, this value will be added to initial approroved value if any\n     */\n    function approve(address _spender, uint256 _value) public \n        returns (bool success) {\n        allowance[msg.sender][_spender] += _value;\n        emit Approval(msg.sender, _spender, _value);\n        return true;\n    }\n    \n    \n    /**\n    * update allowance for other address\n    *\n    * Allows `_spender` to spend no more than `_value` tokens on your behalf\n    *\n    * @param _spender The address authorized to spend\n    * @param _value the max amount they can spend\n    */\n    function UpdateAllowance(address _spender, uint256 _value) public \n        returns (bool success) {\n        allowance[msg.sender][_spender] = _value;\n        emit Approval(msg.sender, _spender, _value);\n        return true;\n    }\n    \n    \n    function AddToken(uint256 _value) public onlyOwner()  returns (bool success) {\n        \n        balanceOf[msg.sender] += _value;            // Add to owner\n        totalSupply += _value;                      // Updates totalSupply\n        emit Mined(msg.sender, _value);\n        return true;\n    }\n    \n    \n    /**\n     * Destroy tokens\n     *\n     * Remove `_value` tokens from the system irreversibly\n     *\n     * @param _value the amount of money to burn\n     */\n    function burn(uint256 _value) public  returns (bool success) {\n        require(balanceOf[msg.sender] >= _value);   // Check if the sender has enough\n        balanceOf[msg.sender] -= _value;            // Subtract from the sender\n        totalSupply -= _value;                      // Updates totalSupply\n        emit Burn(msg.sender, _value);\n        return true;\n    }\n\n\n    /*Destroy tokens from other account\n     * Remove `_value` tokens from the system irreversibly on behalf of `_from`.\n     * @param _from the address of the sender\n     * @param _value the amount of money to burn\n     */\n    function burnFrom(address _from, uint256 _value) public  onlyOwner() returns (bool success) {\n        require(balanceOf[_from] >= _value);                // Check if the targeted balance is enough\n        balanceOf[_from] -= _value;                         // Subtract from the targeted balance\n        totalSupply -= _value;                              // Update totalSupply\n        emit Burn(_from, _value);\n        return true;\n    }\n    \n    \n    function Checkbalance(address addr) internal view returns (uint){\n        return balanceOf[addr];\n    }\n    \n\t\n    /*This function is used by the users app to check the balance in the corresponding smart meter address*/\n\tfunction CheckMybalance(address addr) public view returns (uint){\n        return balanceOf[AppToSmartmeter[addr]];    \n    }\n}\n",
  "sourcePath": "D:\\blockchain\\react-box-master\\react-box-master\\truffle\\contracts\\ERC20.sol",
  "compiler": {
    "name": "solc",
    "version": "0.4.25+commit.59dbf8f1.Emscripten.clang"
  },
  "schemaVersion": "3.4.16",
  "updatedAt": "2024-07-20T20:52:27.409Z",
  "networkType": "ethereum",
  "devdoc": {
    "methods": {
      "UpdateAllowance(address,uint256)": {
        "params": {
          "_spender": "The address authorized to spend",
          "_value": "the max amount they can spend"
        }
      },
      "approve(address,uint256)": {
        "params": {
          "_spender": "The address authorized to spend",
          "_value": "the max amount they can spend, this value will be added to initial approroved value if any"
        }
      },
      "burn(uint256)": {
        "params": {
          "_value": "the amount of money to burn"
        }
      },
      "transfer(address,uint256)": {
        "params": {
          "_to": "The address of the recipient",
          "_value": "the amount to send"
        }
      },
      "transferFrom(address,address,uint256)": {
        "params": {
          "_from": "The address of the sender",
          "_to": "The address of the recipient",
          "_value": "the amount to send"
        }
      }
    }
  },
  "userdoc": {
    "methods": {
      "UpdateAllowance(address,uint256)": {
        "notice": "update allowance for other address    * Allows `_spender` to spend no more than `_value` tokens on your behalf"
      },
      "approve(address,uint256)": {
        "notice": "Set allowance for other address     * Allows `_spender` to spend no more than `_value` tokens on your behalf"
      },
      "burn(uint256)": {
        "notice": "Destroy tokens     * Remove `_value` tokens from the system irreversibly"
      },
      "transfer(address,uint256)": {
        "notice": "Transfer tokens     * Send `_value` tokens to `_to` from your account"
      },
      "transferFrom(address,address,uint256)": {
        "notice": "Transfer tokens from other address     * Send `_value` tokens to `_to` on behalf of `_from`"
      }
    }
  }
}