{
  "contractName": "ExchangeContract",
  "abi": [
    {
      "constant": true,
      "inputs": [],
      "name": "peerEnergyAddress",
      "outputs": [
        {
          "name": "",
          "type": "address"
        }
      ],
      "payable": false,
      "stateMutability": "view",
      "type": "function"
    },
    {
      "constant": true,
      "inputs": [],
      "name": "tKStartTime",
      "outputs": [
        {
          "name": "",
          "type": "uint256"
        }
      ],
      "payable": false,
      "stateMutability": "view",
      "type": "function"
    },
    {
      "inputs": [
        {
          "name": "_peerEnergyAddress",
          "type": "address"
        }
      ],
      "payable": false,
      "stateMutability": "nonpayable",
      "type": "constructor"
    },
    {
      "constant": false,
      "inputs": [],
      "name": "clearEnergy",
      "outputs": [],
      "payable": false,
      "stateMutability": "nonpayable",
      "type": "function"
    },
    {
      "constant": false,
      "inputs": [],
      "name": "clearToken",
      "outputs": [],
      "payable": false,
      "stateMutability": "nonpayable",
      "type": "function"
    },
    {
      "constant": false,
      "inputs": [],
      "name": "restartTrade",
      "outputs": [],
      "payable": false,
      "stateMutability": "nonpayable",
      "type": "function"
    },
    {
      "constant": false,
      "inputs": [
        {
          "name": "TimeInMins",
          "type": "uint256"
        }
      ],
      "name": "changeTokenMarketTime",
      "outputs": [],
      "payable": false,
      "stateMutability": "nonpayable",
      "type": "function"
    }
  ],
  "bytecode": "0x60806040524260025561384060035560015460048054600160a060020a031916600160a060020a0390921691909117905534801561003c57600080fd5b5060405160208061058983398101604052516000805433600160a060020a0319918216178255600180548216600160a060020a03948516179081905560048054919094169116179091556104f390819061009690396000f30060806040526004361061005e5763ffffffff60e060020a6000350416631795eaf081146100635780631bacf9081461007d57806330be86221461009257806335bff1af146100c35780635e58e0f0146100d8578063f6163c7b146100ff575b600080fd5b34801561006f57600080fd5b5061007b600435610114565b005b34801561008957600080fd5b5061007b61016e565b34801561009e57600080fd5b506100a7610222565b60408051600160a060020a039092168252519081900360200190f35b3480156100cf57600080fd5b5061007b610231565b3480156100e457600080fd5b506100ed610371565b60408051918252519081900360200190f35b34801561010b57600080fd5b5061007b610377565b60008054600160a060020a03163314610165576040805160e560020a62461bcd02815260206004820152601660248201526000805160206104a8833981519152604482015290519081900360640190fd5b50603c02600355565b600054600160a060020a031633146101be576040805160e560020a62461bcd02815260206004820152601660248201526000805160206104a8833981519152604482015290519081900360640190fd5b600480546040805160e360020a6303759f210281529051600160a060020a0390921692631bacf90892828201926000929082900301818387803b15801561020457600080fd5b505af1158015610218573d6000803e3d6000fd5b5050426002555050565b600154600160a060020a031681565b600480546040805160e260020a632fba4d3d028152339381018490529051600160a060020a039092169163bee934f4916024808201926020929091908290030181600087803b15801561028357600080fd5b505af1158015610297573d6000803e3d6000fd5b505050506040513d60208110156102ad57600080fd5b505115156001146102f6576040805160e560020a62461bcd02815260206004820152601660248201526000805160206104a8833981519152604482015290519081900360640190fd5b60035460025401421061036e57600480546040805160e060020a63d548d7930281529051600160a060020a039092169263d548d79392828201926000929082900301818387803b15801561034957600080fd5b505af115801561035d573d6000803e3d6000fd5b505060035460028054909101905550505b50565b60025481565b600480546040805160e260020a632fba4d3d028152339381018490529051600160a060020a039092169163bee934f4916024808201926020929091908290030181600087803b1580156103c957600080fd5b505af11580156103dd573d6000803e3d6000fd5b505050506040513d60208110156103f357600080fd5b5051151560011461043c576040805160e560020a62461bcd02815260206004820152601660248201526000805160206104a8833981519152604482015290519081900360640190fd5b600480546040805160e260020a63205807f9028152339381019390935251600160a060020a03909116916381601fe491602480830192600092919082900301818387803b15801561048c57600080fd5b505af11580156104a0573d6000803e3d6000fd5b5050505050560053656e646572206e6f7420617574686f72697365642e00000000000000000000a165627a7a723058206156af4b57425d74e9db939f45fd7a25c0e496475410f0eb130f5f91392ed71a0029",
  "source": "pragma solidity ^0.4.25;\r\n\r\nimport \"./PeerEnergy.sol\";\r\n\r\ncontract ExchangeContract{\r\n    address ExchOwner;\r\n    address public peerEnergyAddress;\r\n\r\n    uint public tKStartTime = now;//should be negative 3 hours\r\n    uint tokenMarktTime = 240 minutes;//Time to ckear Token Market (e.g is 4 hours)\r\n    PeerEnergy interfcontract= PeerEnergy(peerEnergyAddress);\r\n    \r\n    modifier onlySmartMeter(address SMaddr) {\r\n         require(interfcontract.checkSMNode(SMaddr) == true,\r\n\t\t \"Sender not authorised.\");\r\n         _;\r\n     }\r\n    \r\n    constructor(address _peerEnergyAddress) public {\r\n    \tExchOwner = msg.sender;\r\n        peerEnergyAddress = _peerEnergyAddress;\r\n        interfcontract = PeerEnergy(peerEnergyAddress);\r\n        // interfcontract.setExchangeAddr(this);\r\n\r\n    }  \r\n    \r\n    modifier onlyOwner() {\r\n    \trequire(msg.sender == ExchOwner, \"Sender not authorised.\");\r\n        _;\r\n    }\r\n    \r\n    /*  */\r\n    function clearEnergy() public onlySmartMeter(msg.sender) {\r\n        //should be 29 minutes \r\n        interfcontract.clearEnergyOrder(msg.sender);\r\n    }\r\n    \r\n    \r\n    /*  */\r\n    function clearToken() public onlySmartMeter(msg.sender){\r\n        if (now>=tKStartTime + tokenMarktTime){\r\n        \tinterfcontract.clearTokenOffers();\r\n        \ttKStartTime += tokenMarktTime;\r\n        }\r\n        \r\n    }\r\n    \r\n    \r\n    /*  */\r\n    function restartTrade() public onlyOwner() {\r\n        interfcontract.restartTrade();\r\n        tKStartTime = now;\r\n    }\r\n    \r\n    \r\n    //This function is use to change token market time in hours\r\n    function changeTokenMarketTime(uint TimeInMins) public onlyOwner() {\r\n        uint MarktTime = 60*TimeInMins;\r\n        tokenMarktTime = MarktTime;\r\n    }\r\n}",
  "sourcePath": "D:\\blockchain\\react-box-master\\react-box-master\\truffle\\contracts\\Clearing.sol",
  "compiler": {
    "name": "solc",
    "version": "0.4.25+commit.59dbf8f1.Emscripten.clang"
  },
  "schemaVersion": "3.4.16",
  "updatedAt": "2024-07-20T20:52:28.536Z",
  "networkType": "ethereum",
  "devdoc": {
    "methods": {}
  },
  "userdoc": {
    "methods": {}
  }
}