{
  "contractName": "PeerEnergy1",
  "abi": [
    {
      "constant": true,
      "inputs": [],
      "name": "name",
      "outputs": [
        {
          "name": "",
          "type": "string"
        }
      ],
      "payable": false,
      "stateMutability": "view",
      "type": "function"
    },
    {
      "constant": false,
      "inputs": [
        {
          "name": "_spender",
          "type": "address"
        },
        {
          "name": "_value",
          "type": "uint256"
        }
      ],
      "name": "approve",
      "outputs": [
        {
          "name": "success",
          "type": "bool"
        }
      ],
      "payable": false,
      "stateMutability": "nonpayable",
      "type": "function"
    },
    {
      "constant": false,
      "inputs": [
        {
          "name": "_RefId",
          "type": "uint256"
        }
      ],
      "name": "buyerConfirmation",
      "outputs": [
        {
          "name": "success",
          "type": "bool"
        }
      ],
      "payable": false,
      "stateMutability": "nonpayable",
      "type": "function"
    },
    {
      "constant": true,
      "inputs": [
        {
          "name": "_GridNo",
          "type": "uint256"
        },
        {
          "name": "_tim",
          "type": "uint256"
        }
      ],
      "name": "viewSellOffers",
      "outputs": [
        {
          "name": "Sell_Price",
          "type": "uint256[]"
        },
        {
          "name": "Sell_Qty",
          "type": "uint256[]"
        }
      ],
      "payable": false,
      "stateMutability": "view",
      "type": "function"
    },
    {
      "constant": true,
      "inputs": [
        {
          "name": "AppAddr",
          "type": "address"
        },
        {
          "name": "_tim",
          "type": "uint256"
        }
      ],
      "name": "viewQtySoldAndPrice",
      "outputs": [
        {
          "name": "Energy",
          "type": "uint256[]"
        },
        {
          "name": "Prices",
          "type": "uint256[]"
        }
      ],
      "payable": false,
      "stateMutability": "view",
      "type": "function"
    },
    {
      "constant": true,
      "inputs": [],
      "name": "viewSellTokenOffers",
      "outputs": [
        {
          "name": "Sell_Price",
          "type": "uint256[]"
        },
        {
          "name": "Sell_Qty",
          "type": "uint256[]"
        }
      ],
      "payable": false,
      "stateMutability": "view",
      "type": "function"
    },
    {
      "constant": true,
      "inputs": [
        {
          "name": "",
          "type": "uint256"
        }
      ],
      "name": "ArrayWonBid",
      "outputs": [
        {
          "name": "AvgPrice",
          "type": "uint256"
        },
        {
          "name": "AvgQty",
          "type": "uint256"
        },
        {
          "name": "Seller",
          "type": "address"
        },
        {
          "name": "Buyer",
          "type": "address"
        },
        {
          "name": "RfId",
          "type": "uint256"
        },
        {
          "name": "countconfirm",
          "type": "uint256"
        }
      ],
      "payable": false,
      "stateMutability": "view",
      "type": "function"
    },
    {
      "constant": false,
      "inputs": [
        {
          "name": "_RefId",
          "type": "uint256"
        }
      ],
      "name": "sellerConfirmation",
      "outputs": [
        {
          "name": "success",
          "type": "bool"
        }
      ],
      "payable": false,
      "stateMutability": "nonpayable",
      "type": "function"
    },
    {
      "constant": true,
      "inputs": [],
      "name": "totalSupply",
      "outputs": [
        {
          "name": "",
          "type": "uint256"
        }
      ],
      "payable": false,
      "stateMutability": "view",
      "type": "function"
    },
    {
      "constant": false,
      "inputs": [],
      "name": "restartTrade",
      "outputs": [],
      "payable": false,
      "stateMutability": "nonpayable",
      "type": "function"
    },
    {
      "constant": false,
      "inputs": [
        {
          "name": "_TimeInMinutes",
          "type": "uint256"
        }
      ],
      "name": "changeGridBalTime",
      "outputs": [],
      "payable": false,
      "stateMutability": "nonpayable",
      "type": "function"
    },
    {
      "constant": false,
      "inputs": [
        {
          "name": "tokenName",
          "type": "string"
        },
        {
          "name": "tokenSymbol",
          "type": "string"
        }
      ],
      "name": "ChangeTokenSymbName",
      "outputs": [],
      "payable": false,
      "stateMutability": "nonpayable",
      "type": "function"
    },
    {
      "constant": false,
      "inputs": [
        {
          "name": "_from",
          "type": "address"
        },
        {
          "name": "_to",
          "type": "address"
        },
        {
          "name": "_value",
          "type": "uint256"
        }
      ],
      "name": "transferFrom",
      "outputs": [
        {
          "name": "success",
          "type": "bool"
        }
      ],
      "payable": false,
      "stateMutability": "nonpayable",
      "type": "function"
    },
    {
      "constant": false,
      "inputs": [
        {
          "name": "SmartmeterAddr",
          "type": "address"
        },
        {
          "name": "AppNodeAddr",
          "type": "address"
        }
      ],
      "name": "changeUserType",
      "outputs": [],
      "payable": false,
      "stateMutability": "nonpayable",
      "type": "function"
    },
    {
      "constant": true,
      "inputs": [
        {
          "name": "",
          "type": "uint256"
        }
      ],
      "name": "userIDtoAddress",
      "outputs": [
        {
          "name": "",
          "type": "address"
        }
      ],
      "payable": false,
      "stateMutability": "view",
      "type": "function"
    },
    {
      "constant": true,
      "inputs": [
        {
          "name": "",
          "type": "uint256"
        }
      ],
      "name": "gridNoToID",
      "outputs": [
        {
          "name": "",
          "type": "uint256"
        }
      ],
      "payable": false,
      "stateMutability": "view",
      "type": "function"
    },
    {
      "constant": false,
      "inputs": [
        {
          "name": "SmartmeterAddr",
          "type": "address"
        },
        {
          "name": "AppNodeAddr",
          "type": "address"
        },
        {
          "name": "_typeOfUser",
          "type": "uint256"
        },
        {
          "name": "_gridNo",
          "type": "uint256"
        }
      ],
      "name": "createUser",
      "outputs": [],
      "payable": false,
      "stateMutability": "nonpayable",
      "type": "function"
    },
    {
      "constant": true,
      "inputs": [],
      "name": "decimals",
      "outputs": [
        {
          "name": "",
          "type": "uint8"
        }
      ],
      "payable": false,
      "stateMutability": "view",
      "type": "function"
    },
    {
      "constant": true,
      "inputs": [],
      "name": "currentTimeStep",
      "outputs": [
        {
          "name": "step",
          "type": "uint256"
        }
      ],
      "payable": false,
      "stateMutability": "view",
      "type": "function"
    },
    {
      "constant": true,
      "inputs": [
        {
          "name": "",
          "type": "uint256"
        }
      ],
      "name": "users",
      "outputs": [
        {
          "name": "typeOfUser",
          "type": "uint256"
        },
        {
          "name": "gridNo",
          "type": "uint256"
        },
        {
          "name": "consumedEnergy",
          "type": "uint256"
        },
        {
          "name": "producedEnergy",
          "type": "uint256"
        },
        {
          "name": "time",
          "type": "uint256"
        },
        {
          "name": "userDebt",
          "type": "uint256"
        },
        {
          "name": "RelayState",
          "type": "uint256"
        },
        {
          "name": "UtilityDebt",
          "type": "uint256"
        }
      ],
      "payable": false,
      "stateMutability": "view",
      "type": "function"
    },
    {
      "constant": false,
      "inputs": [
        {
          "name": "_consumedProducedEnergy",
          "type": "uint256"
        },
        {
          "name": "flag",
          "type": "uint256"
        }
      ],
      "name": "setMeterData",
      "outputs": [],
      "payable": false,
      "stateMutability": "nonpayable",
      "type": "function"
    },
    {
      "constant": false,
      "inputs": [
        {
          "name": "_value",
          "type": "uint256"
        }
      ],
      "name": "burn",
      "outputs": [
        {
          "name": "success",
          "type": "bool"
        }
      ],
      "payable": false,
      "stateMutability": "nonpayable",
      "type": "function"
    },
    {
      "constant": false,
      "inputs": [
        {
          "name": "_Min",
          "type": "uint256"
        }
      ],
      "name": "changeMinBalance",
      "outputs": [],
      "payable": false,
      "stateMutability": "nonpayable",
      "type": "function"
    },
    {
      "constant": true,
      "inputs": [
        {
          "name": "",
          "type": "uint256"
        }
      ],
      "name": "gridIDToNo",
      "outputs": [
        {
          "name": "",
          "type": "uint256"
        }
      ],
      "payable": false,
      "stateMutability": "view",
      "type": "function"
    },
    {
      "constant": false,
      "inputs": [
        {
          "name": "_spender",
          "type": "address"
        },
        {
          "name": "_value",
          "type": "uint256"
        }
      ],
      "name": "UpdateAllowance",
      "outputs": [
        {
          "name": "success",
          "type": "bool"
        }
      ],
      "payable": false,
      "stateMutability": "nonpayable",
      "type": "function"
    },
    {
      "constant": true,
      "inputs": [
        {
          "name": "addr",
          "type": "address"
        }
      ],
      "name": "CheckMybalance",
      "outputs": [
        {
          "name": "",
          "type": "uint256"
        }
      ],
      "payable": false,
      "stateMutability": "view",
      "type": "function"
    },
    {
      "constant": false,
      "inputs": [
        {
          "name": "_value",
          "type": "uint256"
        }
      ],
      "name": "AddToken",
      "outputs": [
        {
          "name": "success",
          "type": "bool"
        }
      ],
      "payable": false,
      "stateMutability": "nonpayable",
      "type": "function"
    },
    {
      "constant": true,
      "inputs": [
        {
          "name": "_gridNum",
          "type": "uint256"
        }
      ],
      "name": "viewMarketConsensus",
      "outputs": [
        {
          "name": "",
          "type": "bool"
        }
      ],
      "payable": false,
      "stateMutability": "view",
      "type": "function"
    },
    {
      "constant": true,
      "inputs": [
        {
          "name": "SMadress",
          "type": "address"
        }
      ],
      "name": "viewRelayState",
      "outputs": [
        {
          "name": "",
          "type": "uint256"
        }
      ],
      "payable": false,
      "stateMutability": "view",
      "type": "function"
    },
    {
      "constant": true,
      "inputs": [],
      "name": "gridbalancetime",
      "outputs": [
        {
          "name": "",
          "type": "uint256"
        }
      ],
      "payable": false,
      "stateMutability": "view",
      "type": "function"
    },
    {
      "constant": true,
      "inputs": [
        {
          "name": "",
          "type": "uint256"
        }
      ],
      "name": "RefId",
      "outputs": [
        {
          "name": "",
          "type": "uint256"
        }
      ],
      "payable": false,
      "stateMutability": "view",
      "type": "function"
    },
    {
      "constant": true,
      "inputs": [],
      "name": "Token_rate",
      "outputs": [
        {
          "name": "",
          "type": "uint256"
        }
      ],
      "payable": false,
      "stateMutability": "view",
      "type": "function"
    },
    {
      "constant": true,
      "inputs": [
        {
          "name": "_GridNo",
          "type": "uint256"
        }
      ],
      "name": "viewGridSellBuyPrice",
      "outputs": [
        {
          "name": "GenSellPrice",
          "type": "uint256"
        },
        {
          "name": "GenBuyPrice",
          "type": "uint256"
        }
      ],
      "payable": false,
      "stateMutability": "view",
      "type": "function"
    },
    {
      "constant": true,
      "inputs": [],
      "name": "viewBuyTokenOffers",
      "outputs": [
        {
          "name": "Buy_Price",
          "type": "uint256[]"
        },
        {
          "name": "Buy_Qty",
          "type": "uint256[]"
        }
      ],
      "payable": false,
      "stateMutability": "view",
      "type": "function"
    },
    {
      "constant": true,
      "inputs": [
        {
          "name": "",
          "type": "address"
        }
      ],
      "name": "balanceOf",
      "outputs": [
        {
          "name": "",
          "type": "uint256"
        }
      ],
      "payable": false,
      "stateMutability": "view",
      "type": "function"
    },
    {
      "constant": false,
      "inputs": [
        {
          "name": "_UtiAddr",
          "type": "address"
        }
      ],
      "name": "setUtilityAddr",
      "outputs": [
        {
          "name": "",
          "type": "bool"
        }
      ],
      "payable": false,
      "stateMutability": "nonpayable",
      "type": "function"
    },
    {
      "constant": true,
      "inputs": [
        {
          "name": "",
          "type": "address"
        }
      ],
      "name": "userAddresstoID",
      "outputs": [
        {
          "name": "",
          "type": "uint256"
        }
      ],
      "payable": false,
      "stateMutability": "view",
      "type": "function"
    },
    {
      "constant": false,
      "inputs": [
        {
          "name": "_from",
          "type": "address"
        },
        {
          "name": "_value",
          "type": "uint256"
        }
      ],
      "name": "burnFrom",
      "outputs": [
        {
          "name": "success",
          "type": "bool"
        }
      ],
      "payable": false,
      "stateMutability": "nonpayable",
      "type": "function"
    },
    {
      "constant": false,
      "inputs": [
        {
          "name": "memberAddr",
          "type": "address"
        }
      ],
      "name": "clearEnergyOrder",
      "outputs": [],
      "payable": false,
      "stateMutability": "nonpayable",
      "type": "function"
    },
    {
      "constant": true,
      "inputs": [
        {
          "name": "",
          "type": "address"
        }
      ],
      "name": "userIDtoAddrInMG",
      "outputs": [
        {
          "name": "",
          "type": "uint256"
        }
      ],
      "payable": false,
      "stateMutability": "view",
      "type": "function"
    },
    {
      "constant": false,
      "inputs": [
        {
          "name": "_ExchAddr",
          "type": "address"
        }
      ],
      "name": "setExchangeAddr",
      "outputs": [
        {
          "name": "",
          "type": "bool"
        }
      ],
      "payable": false,
      "stateMutability": "nonpayable",
      "type": "function"
    },
    {
      "constant": false,
      "inputs": [
        {
          "name": "_GridNo",
          "type": "uint256"
        },
        {
          "name": "_priceType",
          "type": "uint256"
        }
      ],
      "name": "createGrid",
      "outputs": [],
      "payable": false,
      "stateMutability": "nonpayable",
      "type": "function"
    },
    {
      "constant": false,
      "inputs": [
        {
          "name": "_price",
          "type": "uint256"
        },
        {
          "name": "_Qty",
          "type": "uint256"
        }
      ],
      "name": "placeSellTokenOffer",
      "outputs": [],
      "payable": false,
      "stateMutability": "nonpayable",
      "type": "function"
    },
    {
      "constant": true,
      "inputs": [],
      "name": "symbol",
      "outputs": [
        {
          "name": "",
          "type": "string"
        }
      ],
      "payable": false,
      "stateMutability": "view",
      "type": "function"
    },
    {
      "constant": true,
      "inputs": [],
      "name": "ExchangeAddr",
      "outputs": [
        {
          "name": "",
          "type": "address"
        }
      ],
      "payable": false,
      "stateMutability": "view",
      "type": "function"
    },
    {
      "constant": true,
      "inputs": [
        {
          "name": "_GridNo",
          "type": "uint256"
        },
        {
          "name": "_tim",
          "type": "uint256"
        }
      ],
      "name": "viewMatchedEnergy",
      "outputs": [
        {
          "name": "Buyer_Addr",
          "type": "address[]"
        },
        {
          "name": "Seller_Addr",
          "type": "address[]"
        },
        {
          "name": "Matched_Qty",
          "type": "uint256[]"
        },
        {
          "name": "Price",
          "type": "uint256[]"
        }
      ],
      "payable": false,
      "stateMutability": "view",
      "type": "function"
    },
    {
      "constant": true,
      "inputs": [
        {
          "name": "_GridNo",
          "type": "uint256"
        },
        {
          "name": "_tim",
          "type": "uint256"
        }
      ],
      "name": "viewBuyOffers",
      "outputs": [
        {
          "name": "Buy_Price",
          "type": "uint256[]"
        },
        {
          "name": "Buy_Qty",
          "type": "uint256[]"
        }
      ],
      "payable": false,
      "stateMutability": "view",
      "type": "function"
    },
    {
      "constant": false,
      "inputs": [
        {
          "name": "_to",
          "type": "address"
        },
        {
          "name": "_value",
          "type": "uint256"
        }
      ],
      "name": "transfer",
      "outputs": [
        {
          "name": "success",
          "type": "bool"
        }
      ],
      "payable": false,
      "stateMutability": "nonpayable",
      "type": "function"
    },
    {
      "constant": true,
      "inputs": [
        {
          "name": "",
          "type": "uint256"
        }
      ],
      "name": "grids",
      "outputs": [
        {
          "name": "totalProduction",
          "type": "uint256"
        },
        {
          "name": "totalConsumption",
          "type": "uint256"
        },
        {
          "name": "StartTime",
          "type": "uint256"
        },
        {
          "name": "priceType",
          "type": "uint256"
        },
        {
          "name": "ResetTime",
          "type": "uint256"
        },
        {
          "name": "utilitySellPrice",
          "type": "uint256"
        },
        {
          "name": "utilityBuyPrice",
          "type": "uint256"
        }
      ],
      "payable": false,
      "stateMutability": "view",
      "type": "function"
    },
    {
      "constant": true,
      "inputs": [
        {
          "name": "_addrs",
          "type": "address"
        }
      ],
      "name": "checkSMNode",
      "outputs": [
        {
          "name": "",
          "type": "bool"
        }
      ],
      "payable": false,
      "stateMutability": "view",
      "type": "function"
    },
    {
      "constant": true,
      "inputs": [
        {
          "name": "AppAddr",
          "type": "address"
        }
      ],
      "name": "viewQtyBought",
      "outputs": [
        {
          "name": "",
          "type": "uint256[]"
        }
      ],
      "payable": false,
      "stateMutability": "view",
      "type": "function"
    },
    {
      "constant": false,
      "inputs": [],
      "name": "clearTokenOffers",
      "outputs": [],
      "payable": false,
      "stateMutability": "nonpayable",
      "type": "function"
    },
    {
      "constant": false,
      "inputs": [
        {
          "name": "_price",
          "type": "uint256"
        },
        {
          "name": "_Qty",
          "type": "uint256"
        }
      ],
      "name": "placeBuyTokenOffer",
      "outputs": [],
      "payable": false,
      "stateMutability": "nonpayable",
      "type": "function"
    },
    {
      "constant": false,
      "inputs": [
        {
          "name": "_rate",
          "type": "uint256"
        }
      ],
      "name": "setExchangeRate",
      "outputs": [],
      "payable": false,
      "stateMutability": "nonpayable",
      "type": "function"
    },
    {
      "constant": true,
      "inputs": [],
      "name": "Utility",
      "outputs": [
        {
          "name": "",
          "type": "address"
        }
      ],
      "payable": false,
      "stateMutability": "view",
      "type": "function"
    },
    {
      "constant": false,
      "inputs": [
        {
          "name": "Sellprice",
          "type": "uint256"
        },
        {
          "name": "BuyPrice",
          "type": "uint256"
        },
        {
          "name": "_gridNu",
          "type": "uint256"
        }
      ],
      "name": "setUtilitySellBuyPrice",
      "outputs": [],
      "payable": false,
      "stateMutability": "nonpayable",
      "type": "function"
    },
    {
      "constant": true,
      "inputs": [],
      "name": "MinBal",
      "outputs": [
        {
          "name": "",
          "type": "uint256"
        }
      ],
      "payable": false,
      "stateMutability": "view",
      "type": "function"
    },
    {
      "anonymous": false,
      "inputs": [
        {
          "indexed": true,
          "name": "from",
          "type": "address"
        },
        {
          "indexed": true,
          "name": "to",
          "type": "address"
        },
        {
          "indexed": false,
          "name": "value",
          "type": "uint256"
        }
      ],
      "name": "Transfer",
      "type": "event"
    },
    {
      "anonymous": false,
      "inputs": [
        {
          "indexed": true,
          "name": "_owner",
          "type": "address"
        },
        {
          "indexed": true,
          "name": "_spender",
          "type": "address"
        },
        {
          "indexed": false,
          "name": "_value",
          "type": "uint256"
        }
      ],
      "name": "Approval",
      "type": "event"
    },
    {
      "anonymous": false,
      "inputs": [
        {
          "indexed": true,
          "name": "from",
          "type": "address"
        },
        {
          "indexed": false,
          "name": "value",
          "type": "uint256"
        }
      ],
      "name": "Burn",
      "type": "event"
    },
    {
      "anonymous": false,
      "inputs": [
        {
          "indexed": true,
          "name": "from",
          "type": "address"
        },
        {
          "indexed": false,
          "name": "value",
          "type": "uint256"
        }
      ],
      "name": "Mined",
      "type": "event"
    },
    {
      "constant": false,
      "inputs": [
        {
          "name": "_price",
          "type": "uint256"
        },
        {
          "name": "_Qty",
          "type": "uint256"
        },
        {
          "name": "_tim",
          "type": "uint256"
        }
      ],
      "name": "placeSellOffer",
      "outputs": [],
      "payable": false,
      "stateMutability": "nonpayable",
      "type": "function"
    },
    {
      "constant": false,
      "inputs": [
        {
          "name": "_price",
          "type": "uint256"
        },
        {
          "name": "_Qty",
          "type": "uint256"
        },
        {
          "name": "_tim",
          "type": "uint256"
        }
      ],
      "name": "placeBuyOffer",
      "outputs": [],
      "payable": false,
      "stateMutability": "nonpayable",
      "type": "function"
    }
  ],
  "bytecode": "0x60c0604052600b60808190527f456e6572677920436f696e00000000000000000000000000000000000000000060a0908152620000409160009190620000fa565b506040805180820190915260028082527f454300000000000000000000000000000000000000000000000000000000000060209092019182526200008791600191620000fa565b50600280547e3899162693736ac531a5a58f1fbb4b746504382ca7e400000000000000000060058190556101f460115560186017556001601a55603c601b819055601c5561010033908102600160a860020a0319909316929092179092556000908152600660205260409020556200019f565b828054600181600116156101000203166002900490600052602060002090601f016020900481019282601f106200013d57805160ff19168380011785556200016d565b828001600101855582156200016d579182015b828111156200016d57825182559160200191906001019062000150565b506200017b9291506200017f565b5090565b6200019c91905b808211156200017b576000815560010162000186565b90565b6197f580620001af6000396000f3006080604052600436106102a55763ffffffff60e060020a60003504166306fdde0381146102aa578063095ea7b3146103345780630ba3c75b1461036c5780630cf5d08b146103845780630e2aa876146104385780630e5e4089146104585780631203b64c1461047c57806312f2e6ba1461049157806315d1ac2f146104e857806318160ddd146105005780631bacf908146105275780631f827e7d1461053c578063201a704e1461055457806323b872dd146105eb578063255d98f514610615578063292bc0381461063c57806329a7b1fc146106705780632f94fb2014610688578063313ce567146106b5578063344dcc39146106e0578063365b98b2146106f557806339866a6a1461074e57806342966c68146107695780634ea18fab146107815780635756608314610799578063590f742c146107b15780635a754f89146107d55780635bcb5fd4146107f65780635feff7621461080e578063601edfc814610826578063629a257c14610847578063631f2bb81461085c57806365fa84ef1461087457806367ffe9d41461088957806369560c5d146108ba57806370a08231146108cf578063795e7659146108f057806379a0917f1461091157806379cc6790146109325780637e5b3c441461095657806381601fe4146109745780638ab289bc146109955780638ae91695146109b65780638b0e460c146109d75780639324e55b146109f257806395d89b4114610a0d57806398cc42db14610a225780639b1613e414610a37578063a0281e9f14610b75578063a9059cbb14610b90578063af3b967814610bb4578063bee934f414610c04578063c3144d5114610c25578063d548d79314610c96578063d6962d2714610cab578063db068e0e14610cc6578063eda46dd914610cde578063f476132814610cf3578063fbf88d4814610d11575b600080fd5b3480156102b657600080fd5b506102bf610d26565b6040805160208082528351818301528351919283929083019185019080838360005b838110156102f95781810151838201526020016102e1565b50505050905090810190601f1680156103265780820380516001836020036101000a031916815260200191505b509250505060405180910390f35b34801561034057600080fd5b50610358600160a060020a0360043516602435610db4565b604080519115158252519081900360200190f35b34801561037857600080fd5b50610358600435610e0b565b34801561039057600080fd5b5061039f6004356024356110de565b604051808060200180602001838103835285818151815260200191508051906020019060200280838360005b838110156103e35781810151838201526020016103cb565b50505050905001838103825284818151815260200191508051906020019060200280838360005b8381101561042257818101518382015260200161040a565b5050505090500194505050505060405180910390f35b34801561044457600080fd5b50610456600435602435604435611220565b005b34801561046457600080fd5b5061039f600160a060020a03600435166024356117d4565b34801561048857600080fd5b5061039f611b66565b34801561049d57600080fd5b506104a9600435611c19565b604080519687526020870195909552600160a060020a0393841686860152919092166060850152608084019190915260a0830152519081900360c00190f35b3480156104f457600080fd5b50610358600435611c6c565b34801561050c57600080fd5b50610515611eab565b60408051918252519081900360200190f35b34801561053357600080fd5b50610456611eb1565b34801561054857600080fd5b50610456600435611fa4565b34801561056057600080fd5b506040805160206004803580820135601f810184900484028501840190955284845261045694369492936024939284019190819084018382808284375050604080516020601f89358b018035918201839004830284018301909452808352979a99988101979196509182019450925082915084018382808284375094975061200b9650505050505050565b3480156105f757600080fd5b50610358600160a060020a036004358116906024351660443561208c565b34801561062157600080fd5b50610456600160a060020a0360043581169060243516612140565b34801561064857600080fd5b5061065460043561224f565b60408051600160a060020a039092168252519081900360200190f35b34801561067c57600080fd5b5061051560043561226a565b34801561069457600080fd5b50610456600160a060020a036004358116906024351660443560643561227c565b3480156106c157600080fd5b506106ca6127e5565b6040805160ff9092168252519081900360200190f35b3480156106ec57600080fd5b506105156127ee565b34801561070157600080fd5b5061070d600435612803565b604080519889526020890197909752878701959095526060870193909352608086019190915260a085015260c084015260e083015251908190036101000190f35b34801561075a57600080fd5b50610456600435602435612859565b34801561077557600080fd5b50610358600435612ab4565b34801561078d57600080fd5b50610456600435612b1b565b3480156107a557600080fd5b50610515600435612b75565b3480156107bd57600080fd5b50610358600160a060020a0360043516602435612b87565b3480156107e157600080fd5b50610515600160a060020a0360043516612bdb565b34801561080257600080fd5b50610358600435612c06565b34801561081a57600080fd5b50610358600435612cb8565b34801561083257600080fd5b50610515600160a060020a0360043516612e0d565b34801561085357600080fd5b50610515612e4e565b34801561086857600080fd5b50610515600435612e54565b34801561088057600080fd5b50610515612e66565b34801561089557600080fd5b506108a1600435612e6c565b6040805192835260208301919091528051918290030190f35b3480156108c657600080fd5b5061039f612ed9565b3480156108db57600080fd5b50610515600160a060020a0360043516612f88565b3480156108fc57600080fd5b50610358600160a060020a0360043516612f9a565b34801561091d57600080fd5b50610515600160a060020a0360043516613017565b34801561093e57600080fd5b50610358600160a060020a0360043516602435613029565b34801561096257600080fd5b506104566004356024356044356130fa565b34801561098057600080fd5b50610456600160a060020a036004351661362d565b3480156109a157600080fd5b50610515600160a060020a0360043516613703565b3480156109c257600080fd5b50610358600160a060020a0360043516613715565b3480156109e357600080fd5b50610456600435602435613792565b3480156109fe57600080fd5b50610456600435602435613e11565b348015610a1957600080fd5b506102bf614108565b348015610a2e57600080fd5b50610654614162565b348015610a4357600080fd5b50610a52600435602435614171565b6040518080602001806020018060200180602001858103855289818151815260200191508051906020019060200280838360005b83811015610a9e578181015183820152602001610a86565b50505050905001858103845288818151815260200191508051906020019060200280838360005b83811015610add578181015183820152602001610ac5565b50505050905001858103835287818151815260200191508051906020019060200280838360005b83811015610b1c578181015183820152602001610b04565b50505050905001858103825286818151815260200191508051906020019060200280838360005b83811015610b5b578181015183820152602001610b43565b505050509050019850505050505050505060405180910390f35b348015610b8157600080fd5b5061039f6004356024356144b7565b348015610b9c57600080fd5b50610358600160a060020a0360043516602435614540565b348015610bc057600080fd5b50610bcc600435614556565b604080519788526020880196909652868601949094526060860192909252608085015260a084015260c0830152519081900360e00190f35b348015610c1057600080fd5b50610358600160a060020a03600435166145a6565b348015610c3157600080fd5b50610c46600160a060020a0360043516614639565b60408051602080825283518183015283519192839290830191858101910280838360005b83811015610c82578181015183820152602001610c6a565b505050509050019250505060405180910390f35b348015610ca257600080fd5b506104566147ba565b348015610cb757600080fd5b50610456600435602435614814565b348015610cd257600080fd5b50610456600435614a82565b348015610cea57600080fd5b50610654614adc565b348015610cff57600080fd5b50610456600435602435604435614aeb565b348015610d1d57600080fd5b50610515614bc0565b6000805460408051602060026001851615610100026000190190941693909304601f81018490048402820184019092528181529291830182828015610dac5780601f10610d8157610100808354040283529160200191610dac565b820191906000526020600020905b815481529060010190602001808311610d8f57829003601f168201915b505050505081565b336000818152600760209081526040808320600160a060020a0387168085529083528184208054870190558151868152915193949093909260008051602061978a833981519152928290030190a350600192915050565b33600081815260086020818152604080842054600160a060020a0390811680865260168452828620548652601584529185205486865293909252929392911614610e8d576040805160e560020a62461bcd028152602060048201526014602482015260008051602061974a833981519152604482015290519081900360640190fd5b600083815260146020526040902054601280543392908110610eab57fe5b6000918252602090912060036006909202010154600160a060020a031614156110d357600083815260146020526040902054601280549091908110610eec57fe5b9060005260206000209060060201600501546002141561107c5760035460008481526014602052604081205460128054610fa094600160a060020a0316936008939092918110610f3857fe5b6000918252602080832060036006909302019190910154600160a060020a039081168452838201949094526040928301822054898352601490915291902054601280549290931692918110610f8957fe5b90600052602060002090600602016001015461208c565b50600083815260146020526040902054601280549091908110610fbf57fe5b6000918252602080832060016006909302019190910154600354600160a060020a03168352600782526040808420878552601490935283205460128054929492909190811061100a57fe5b6000918252602080832060026006909302019190910154600160a060020a03168352828101939093526040918201812080549490940390935585835260149091529020546012805460039290811061105e57fe5b906000526020600020906006020160050181905550600191506110d8565b60008381526014602052604090205460128054909190811061109a57fe5b906000526020600020906006020160050154600014156110d3576000838152601460205260409020546012805460019290811061105e57fe5b600091505b50919050565b6000828152601e60205260409020546019805460609283929181106110ff57fe5b90600052602060002090601402016007018381548110151561111d57fe5b906000526020600020016019601e60008781526020019081526020016000205481548110151561114957fe5b90600052602060002090601402016008018481548110151561116757fe5b90600052602060002001818054806020026020016040519081016040528092919081815260200182805480156111bc57602002820191906000526020600020905b8154815260200190600101908083116111a8575b505050505091508080548060200260200160405190810160405280929190818152602001828054801561120e57602002820191906000526020600020905b8154815260200190600101908083116111fa575b50505050509050915091509250929050565b33600081815260086020818152604080842054600160a060020a0390811680865260168452828620548652601584529185205486865293909252929384938493919291909116146112a9576040805160e560020a62461bcd028152602060048201526014602482015260008051602061974a833981519152604482015290519081900360640190fd5b601a543360009081526008602052604090205487918991828402909102610e10029081906112df90600160a060020a0316614bc6565b10158015611365575033600090815260086020908152604080832054600160a060020a03168352601690915281205460098054601993601e93909291811061132357fe5b90600052602060002090600c02016001015481526020019081526020016000205481548110151561135057fe5b9060005260206000209060140201600e015482115b15156113d7576040805160e560020a62461bcd02815260206004820152603060248201527f4e6f7420656e6f7567682062616c616e6365206f72205072696365206e6f74206044820152608060020a6f77697468696e207468652072616e676502606482015290519081900360840190fd5b33600090815260086020908152604080832054600160a060020a03168352601690915290205460098054909190811061140c57fe5b90600052602060002090600c02016001015496506114e66019601e60008a81526020019081526020016000205481548110151561144557fe5b90600052602060002090601402016009018981548110151561146357fe5b906000526020600020018054806020026020016040519081016040528092919081815260200182805480156114c157602002820191906000526020600020905b8154600160a060020a031681526001909101906020018083116114a3575b505033600090815260086020526040902054600160a060020a03169250614be1915050565b6000888152601e60205260409020546019805492985061152992909190811061150b57fe5b9060005260206000209060140201600c018981548110151561146357fe5b33600090815260086020908152604080832054600160a060020a031683526016909152812054600980549398508c93601993601e93909291811061156957fe5b90600052602060002090600c02016001015481526020019081526020016000205481548110151561159657fe5b9060005260206000209060140201600b01898154811015156115b457fe5b90600052602060002001868154811015156115cb57fe5b600091825260208083209091019290925533815260088252604080822054600160a060020a0316825260169092529081205460098054601992601e928592909190811061161457fe5b90600052602060002090600c02016001015481526020019081526020016000205481548110151561164157fe5b90600052602060002090601402016008018981548110151561165f57fe5b906000526020600020018781548110151561167657fe5b600091825260208083209091019290925533815260088252604080822054600160a060020a03168252601690925290812054600980548d93601993601e93919281106116be57fe5b90600052602060002090600c0201600101548152602001908152602001600020548154811015156116eb57fe5b9060005260206000209060140201600a018981548110151561170957fe5b906000526020600020018681548110151561172057fe5b600091825260208083209091019290925533815260088252604080822054600160a060020a0316825260169092522054600980546117799290811061176157fe5b90600052602060002090600c02016001015489614c32565b33600090815260086020908152604080832054600160a060020a031683526016909152902054600980546117c8929081106117b057fe5b90600052602060002090600c02016001015489614f22565b50505050505050505050565b600160a060020a0380831660009081526008602090815260408083205490931682526016905290812054600980546060938493909284928392859291811061181857fe5b90600052602060002090600c02016006018781548110151561183657fe5b6000918252602080832090910154600160a060020a03808c168452600883526040808520549091168452601690925291205460098054909190811061187757fe5b90600052602060002090600c02016008018881548110151561189557fe5b9060005260206000200154111561190e57600160a060020a0380891660009081526008602090815260408083205490931682526016905220546009805490919081106118dd57fe5b90600052602060002090600c0201600601878154811015156118fb57fe5b6000918252602090912001549350611971565b600160a060020a03808916600090815260086020908152604080832054909316825260169052205460098054909190811061194557fe5b90600052602060002090600c02016008018781548110151561196357fe5b906000526020600020015493505b600160a060020a0380891660009081526008602090815260408083205490931682526016905220546009805490919081106119a857fe5b90600052602060002090600c0201600801878154811015156119c657fe5b506000526040805185815260208681028201019091528480156119f3578160200160208202803883390190505b50925083604051908082528060200260200182016040528015611a20578160200160208202803883390190505b509150600090505b83811015611b5957600160a060020a038089166000908152600860209081526040808320549093168252601690522054600980549091908110611a6757fe5b90600052602060002090600c020160060187815481101515611a8557fe5b9060005260206000200181815481101515611a9c57fe5b90600052602060002001548382815181101515611ab557fe5b6020908102909101810191909152600160a060020a03808a1660009081526008835260408082205490921681526016909252902054600980549091908110611af957fe5b90600052602060002090600c020160070187815481101515611b1757fe5b9060005260206000200181815481101515611b2e57fe5b90600052602060002001548282815181101515611b4757fe5b60209081029091010152600101611a28565b5090969095509350505050565b606080600a600b81805480602002602001604051908101604052809291908181526020018280548015611bb857602002820191906000526020600020905b815481526020019060010190808311611ba4575b5050505050915080805480602002602001604051908101604052809291908181526020018280548015611c0a57602002820191906000526020600020905b815481526020019060010190808311611bf6575b50505050509050915091509091565b6012805482908110611c2757fe5b60009182526020909120600690910201805460018201546002830154600384015460048501546005909501549395509193600160a060020a0391821693929091169186565b33600081815260086020818152604080842054600160a060020a0390811680865260168452828620548652601584529185205486865293909252929392911614611cee576040805160e560020a62461bcd028152602060048201526014602482015260008051602061974a833981519152604482015290519081900360640190fd5b600083815260146020526040902054601280543392908110611d0c57fe5b6000918252602090912060026006909202010154600160a060020a031614156110d357600083815260146020526040902054601280549091908110611d4d57fe5b90600052602060002090600602016005015460011415611e545760035460008481526014602052604081205460128054611d9994600160a060020a0316936008939092918110610f3857fe5b50600083815260146020526040902054601280549091908110611db857fe5b6000918252602080832060016006909302019190910154600354600160a060020a031683526007825260408084208785526014909352832054601280549294929091908110611e0357fe5b600091825260208083206003600690930201820154600160a060020a031684528381019490945260409283018220805495909503909455868152601490925290205460128054909190811061105e57fe5b600083815260146020526040902054601280549091908110611e7257fe5b906000526020600020906006020160050154600014156110d3576000838152601460205260409020546012805460029290811061105e57fe5b60055481565b600354600090600160a060020a03163314611f04576040805160e560020a62461bcd028152602060048201526016602482015260008051602061976a833981519152604482015290519081900360640190fd5b504260185560005b601954811015611f675742601982815481101515611f2657fe5b90600052602060002090601402016002018190555042601982815481101515611f4b57fe5b6000918252602090912060066014909202010155600101611f0c565b5060005b600954811015611fa15742600982815481101515611f8557fe5b600091825260209091206004600c909202010155600101611f6b565b50565b6002546101009004600160a060020a03163314611ff9576040805160e560020a62461bcd028152602060048201526016602482015260008051602061976a833981519152604482015290519081900360640190fd5b603c60001982018102601b5502601c55565b6002546101009004600160a060020a03163314612060576040805160e560020a62461bcd028152602060048201526016602482015260008051602061976a833981519152604482015290519081900360640190fd5b81516120739060009060208501906193e9565b5080516120879060019060208401906193e9565b505050565b6003546000908190600160a060020a03163314806120b957506002546101009004600160a060020a031633145b156120d3576120c98585856151c6565b9050809150612138565b600160a060020a038516600090815260076020908152604080832033845290915290205483111561210357600080fd5b600160a060020a03851660009081526007602090815260408083203384529091529020805484900390556120c98585856151c6565b509392505050565b6002546101009004600160a060020a03163314612195576040805160e560020a62461bcd028152602060048201526016602482015260008051602061976a833981519152604482015290519081900360640190fd5b600160a060020a0380821660009081526008602052604090205483918391818416911614612206576040805160e560020a62461bcd0281526020600482015260136024820152606a60020a72155cd95c88111bd95cc81b9bdd08115e1a5cdd02604482015290519081900360640190fd5b600160a060020a0384166000908152601660205260409020546009805460029290811061222f57fe5b60009182526020909120600c909102015561224984615298565b50505050565b601560205260009081526040902054600160a060020a031681565b601d6020526000908152604090205481565b600160a060020a038084166000908152600860205260408120549091869186918084169116148015906122c1575080600160a060020a031682600160a060020a031614155b80156122db5750600454600160a060020a03838116911614155b80156122f55750600454600160a060020a03828116911614155b1515612343576040805160e560020a62461bcd0281526020600482015260126024820152607260020a71155cd95c88105b1c9958591e48115e1a5cdd02604482015290519081900360640190fd5b6002546101009004600160a060020a03163314612398576040805160e560020a62461bcd028152602060048201526016602482015260008051602061976a833981519152604482015290519081900360640190fd5b6000848152601e60209081526040808320548352601d90915290205484908114612405576040805160e560020a62461bcd0281526020600482015260136024820152606a60020a7211dc9a5908111bd95cc8139bdd08115e1a5cdd02604482015290519081900360640190fd5b600160096101806040519081016040528089815260200188815260200160008152602001600081526020016019601e60008b81526020019081526020016000205481548110151561245257fe5b90600052602060002090601402016002015481526020016000604051908082528060200260200182016040528015612494578160200160208202803883390190505b50815260200160006040519080825280602002602001820160405280156124cf57816020015b60608152602001906001900390816124ba5790505b508152602001600060405190808252806020026020018201604052801561250a57816020015b60608152602001906001900390816124f55790505b508152602001600060405190808252806020026020018201604052801561253b578160200160208202803883390190505b508152600060208083018290526001604080850182905260609485018490528654808301808955978552938390208651600c90950201938455858301519184019190915584015160028301559183015160038201556080830151600482015560a0830151805191926125b592600585019290910190619463565b5060c082015180516125d191600684019160209091019061949d565b5060e082015180516125ed91600784019160209091019061949d565b50610100820151805161260a916008840191602090910190619463565b506101208201516009820155610140820151600a82015561016090910151600b909101550360008181526015602090815260408083208054600160a060020a031916600160a060020a038e16908117909155835260168252808320849055888352601e9091529020546019805492965091811061268357fe5b600091825260208083206014929092029091016005018054600181018255908352818320018054600160a060020a031916600160a060020a038c16179055868252601e905260409020546019805490919081106126dc57fe5b6000918252602080832060046014909302019190910180546001818101835591845282842001819055878352601e90915260409091205460198054909190811061272257fe5b6000918252602080832060056014909302019190910154600160a060020a038c168352601f9091526040909120919003905561275e85896157b4565b61276788615a88565b600160a060020a0387811660009081526008602090815260408083208054600160a060020a031916948d1694851790559282526016905220546009805490919081106127af57fe5b90600052602060002090600c020160000154600214156127d2576127d288615298565b6127db85615af3565b5050505050505050565b60025460ff1681565b6000806127f9615b1c565b90508091505b5090565b600980548290811061281157fe5b90600052602060002090600c020160009150905080600001549080600101549080600201549080600301549080600401549080600901549080600a01549080600b0154905088565b3360008181526016602090815260408083205483526015909152902054600160a060020a031681146128ca576040805160e560020a62461bcd02815260206004820152600f6024820152608960020a6e2737ba1029b6b0b93a1026b2ba32b902604482015290519081900360640190fd5b601b54336000908152601660205260409020546009805490919081106128ec57fe5b90600052602060002090600c020160040154014210151561290f5761290f615b4c565b61291833615d9b565b3360009081526016602052604090205460098054909190811061293757fe5b90600052602060002090600c0201600a015460011415612087578160011415612a02573360009081526016602052604090205460098054859290811061297957fe5b600091825260208083206002600c9093020191909101805490930190925533815260169091526040812054600980548693601993601e93919281106129ba57fe5b90600052602060002090600c0201600101548152602001908152602001600020548154811015156129e757fe5b60009182526020909120600160149092020101805490910190555b81600214156120875733600090815260166020526040902054600980548592908110612a2a57fe5b600091825260208083206003600c9093020191909101805490930190925533815260169091526040812054600980548693601993601e9391928110612a6b57fe5b90600052602060002090600c020160010154815260200190815260200160002054815481101515612a9857fe5b6000918252602090912060149091020180549091019055505050565b33600090815260066020526040812054821115612ad057600080fd5b3360008181526006602090815260409182902080548690039055600580548690039055815185815291516000805160206197aa8339815191529281900390910190a25060015b919050565b6002546101009004600160a060020a03163314612b70576040805160e560020a62461bcd028152602060048201526016602482015260008051602061976a833981519152604482015290519081900360640190fd5b601155565b601e6020526000908152604090205481565b336000818152600760209081526040808320600160a060020a0387168085529083528184208690558151868152915193949093909260008051602061978a833981519152928290030190a350600192915050565b600160a060020a03908116600090815260086020908152604080832054909316825260069052205490565b6002546000906101009004600160a060020a03163314612c5e576040805160e560020a62461bcd028152602060048201526016602482015260008051602061976a833981519152604482015290519081900360640190fd5b336000818152600660209081526040918290208054860190556005805486019055815185815291517f3ad10ba9777a3bc21180a465e5459861d07cbdb271af9a0f10c993b365b760f89281900390910190a2506001919050565b600354600090819081908190600160a060020a03163314612d11576040805160e560020a62461bcd028152602060048201526016602482015260008051602061976a833981519152604482015290519081900360640190fd5b60009250600091505b6000858152601e6020526040902054601980549091908110612d3857fe5b906000526020600020906014020160040180549050821015612dac576000858152601e6020526040902054601980549091908110612d7257fe5b906000526020600020906014020160040182815481101515612d9057fe5b9060005260206000200154830192508180600101925050612d1a565b6000858152601e6020526040902054601980549091908110612dca57fe5b90600052602060002090601402016004018054905083606402811515612dec57fe5b04905060338110612e005760019350612e05565b600093505b505050919050565b600160a060020a038116600090815260166020526040812054600980549091908110612e3557fe5b90600052602060002090600c0201600a01549050919050565b601c5481565b60136020526000908152604090205481565b601a5481565b6000818152601e6020526040812054601980548392908110612e8a57fe5b9060005260206000209060140201600d01546019601e600086815260200190815260200160002054815481101515612ebe57fe5b9060005260206000209060140201600e015491509150915091565b606080600d600e81805480602002602001604051908101604052809291908181526020018280548015611bb85760200282019190600052602060002090815481526020019060010190808311611ba4575050505050915080805480602002602001604051908101604052809291908181526020018280548015611c0a5760200282019190600052602060002090815481526020019060010190808311611bf65750505050509050915091509091565b60066020526000908152604090205481565b6002546000906101009004600160a060020a03163314612ff2576040805160e560020a62461bcd028152602060048201526016602482015260008051602061976a833981519152604482015290519081900360640190fd5b5060048054600160a060020a038316600160a060020a03199091161790556001919050565b60166020526000908152604090205481565b6002546000906101009004600160a060020a03163314613081576040805160e560020a62461bcd028152602060048201526016602482015260008051602061976a833981519152604482015290519081900360640190fd5b600160a060020a0383166000908152600660205260409020548211156130a657600080fd5b600160a060020a03831660008181526006602090815260409182902080548690039055600580548690039055815185815291516000805160206197aa8339815191529281900390910190a250600192915050565b33600081815260086020818152604080842054600160a060020a039081168086526016845282862054865260158452918520548686529390925292938493849391929190911614613183576040805160e560020a62461bcd028152602060048201526014602482015260008051602061974a833981519152604482015290519081900360640190fd5b33600090815260086020908152604080832054600160a060020a0316835260169091529020546009805489929081106131b857fe5b90600052602060002090600c0201600001546002148015613251575033600090815260086020908152604080832054600160a060020a03168352601690915281205460098054601993601e93909291811061320f57fe5b90600052602060002090600c02016001015481526020019081526020016000205481548110151561323c57fe5b9060005260206000209060140201600d015481105b15156132bf576040805160e560020a62461bcd02815260206004820152602c60248201527f4e6f7420612050726f73756d6572206f72205072696365206e6f742077697468604482015260a060020a6b696e207468652072616e676502606482015290519081900360840190fd5b33600090815260086020908152604080832054600160a060020a0316835260169091529020546009805490919081106132f457fe5b90600052602060002090600c020160010154945061334b6019601e60008881526020019081526020016000205481548110151561332d57fe5b90600052602060002090601402016009018781548110151561146357fe5b6000868152601e60205260409020546019805492965061338e92909190811061337057fe5b9060005260206000209060140201600c018781548110151561146357fe5b33600090815260086020908152604080832054600160a060020a031683526016909152812054600980549396508a93601993601e9390929181106133ce57fe5b90600052602060002090600c0201600101548152602001908152602001600020548154811015156133fb57fe5b90600052602060002090601402016008018781548110151561341957fe5b906000526020600020018581548110151561343057fe5b600091825260208083209091019290925533815260088252604080822054600160a060020a0316825260169092529081205460098054601992601e928592909190811061347957fe5b90600052602060002090600c0201600101548152602001908152602001600020548154811015156134a657fe5b9060005260206000209060140201600b01878154811015156134c457fe5b90600052602060002001848154811015156134db57fe5b600091825260208083209091019290925533815260088252604080822054600160a060020a03168252601690925290812054600980548b93601993601e939192811061352357fe5b90600052602060002090600c02016001015481526020019081526020016000205481548110151561355057fe5b90600052602060002090601402016007018781548110151561356e57fe5b906000526020600020018581548110151561358557fe5b600091825260208083209091019290925533815260088252604080822054600160a060020a0316825260169092522054600980546135de929081106135c657fe5b90600052602060002090600c02016001015487614c32565b33600090815260086020908152604080832054600160a060020a031683526016909152902054600980546127db9290811061361557fe5b90600052602060002090600c02016001015487614f22565b6003546000908190600160a060020a03163314613682576040805160e560020a62461bcd028152602060048201526016602482015260008051602061976a833981519152604482015290519081900360640190fd5b600160a060020a0383166000908152601660205260409020546009805490919081106136aa57fe5b90600052602060002090600c02016001015491506136c782612cb8565b151560011415612087575060005b6017548110156136f1576136e98282615fb7565b6001016136d5565b6136fa826170db565b61208782617168565b601f6020526000908152604090205481565b6002546000906101009004600160a060020a0316331461376d576040805160e560020a62461bcd028152602060048201526016602482015260008051602061976a833981519152604482015290519081900360640190fd5b5060038054600160a060020a038316600160a060020a03199091161790556001919050565b6002546000906101009004600160a060020a031633146137ea576040805160e560020a62461bcd028152602060048201526016602482015260008051602061976a833981519152604482015290519081900360640190fd5b6000838152601e60209081526040808320548352601d9091529020548390811415613857576040805160e560020a62461bcd0281526020600482015260126024820152607260020a7111dc9a5908105b1c9958591e48115e1a5cdd02604482015290519081900360640190fd5b6001601961028060405190810160405280600081526020016000815260200142815260200186815260200160006040519080825280602002602001820160405280156138ad578160200160208202803883390190505b50815260200160006040519080825280602002602001820160405280156138de578160200160208202803883390190505b508152602001428152602001600060405190808252806020026020018201604052801561391f57816020015b606081526020019060019003908161390a5790505b508152602001600060405190808252806020026020018201604052801561395a57816020015b60608152602001906001900390816139455790505b508152602001600060405190808252806020026020018201604052801561399557816020015b60608152602001906001900390816139805790505b50815260200160006040519080825280602002602001820160405280156139d057816020015b60608152602001906001900390816139bb5790505b5081526020016000604051908082528060200260200182016040528015613a0b57816020015b60608152602001906001900390816139f65790505b5081526020016000604051908082528060200260200182016040528015613a4657816020015b6060815260200190600190039081613a315790505b508152602001600f8152602001600281526020016000604051908082528060200260200182016040528015613a8f57816020015b6060815260200190600190039081613a7a5790505b5081526020016000604051908082528060200260200182016040528015613aca57816020015b6060815260200190600190039081613ab55790505b5081526020016000604051908082528060200260200182016040528015613b0557816020015b6060815260200190600190039081613af05790505b5081526020016000604051908082528060200260200182016040528015613b4057816020015b6060815260200190600190039081613b2b5790505b5081526020016000604051908082528060200260200182016040528015613b71578160200160208202803883390190505b509052815460018181018085556000948552602094859020845160149094020192835584840151918301919091556040830151600283015560608301516003830155608083015180519194613bce92600485019290910190619463565b5060a08201518051613bea9160058401916020909101906194f6565b5060c0820151600682015560e08201518051613c1091600784019160209091019061949d565b506101008201518051613c2d91600884019160209091019061949d565b506101208201518051613c4a916009840191602090910190619557565b506101408201518051613c6791600a84019160209091019061949d565b506101608201518051613c8491600b84019160209091019061949d565b506101808201518051613ca191600c840191602090910190619557565b506101a0820151600d8201556101c0820151600e8201556101e08201518051613cd491600f840191602090910190619557565b506102008201518051613cf1916010840191602090910190619557565b506102208201518051613d0e91601184019160209091019061949d565b506102408201518051613d2b91601284019160209091019061949d565b506102608201518051613d48916013840191602090910190619463565b505050036000818152601d60209081526040808320889055878352601e9091529020819055601980549193509083908110613d7f57fe5b60009182526020808320600454601493909302016005018054600181018255908452818420018054600160a060020a03909316600160a060020a031990931692909217909155858252601e90526040902054601980549091908110613de057fe5b60009182526020808320600460149093020191909101805460018181018355918452919092200155612249846173e0565b33600081815260086020818152604080842054600160a060020a039081168086526016845282862054865260158452918520549486905292909152911614613e91576040805160e560020a62461bcd028152602060048201526014602482015260008051602061974a833981519152604482015290519081900360640190fd5b60115433600090815260086020908152604080832054600160a060020a031683526006909152902054839182011115613f0c576040805160e560020a62461bcd0281526020600482015260126024820152607060020a714e6f7420456e6f7567682062616c616e636502604482015290519081900360640190fd5b600354613f2290600160a060020a031684610db4565b50600a8054600181810183557fc65a7bb8d6351c1cf70c95a316cc6a92839c986682d98bc35f958f4883f9d2a8909101869055600b80548083019091557f0175b7a638427703f0dbe7bb9bbf987a2551717b34e79f33b5b1008d1fa01db901859055600c805491820181556000527fdf6966c971051c3d54ec59162606531493a51404a002842f56009d7e5cf4a8c7018054600160a060020a031916331790558054604080516020838102820181019092528281526140c4939092909183018282801561400e57602002820191906000526020600020905b815481526020019060010190808311613ffa575b5050505050600b80548060200260200160405190810160405280929190818152602001828054801561405f57602002820191906000526020600020905b81548152602001906001019080831161404b575b5050505050600c8054806020026020016040519081016040528092919081815260200182805480156140ba57602002820191906000526020600020905b8154600160a060020a0316815260019091019060200180831161409c575b5050505050617886565b8051600a90600090600b9082906140e290600c9060208801906194f6565b505084516140f591906020870190619463565b505083516127db91906020860190619463565b60018054604080516020600284861615610100026000190190941693909304601f81018490048402820184019092528181529291830182828015610dac5780601f10610d8157610100808354040283529160200191610dac565b600354600160a060020a031681565b606080606080600060608060608060006019601e60008e8152602001908152602001600020548154811015156141a357fe5b90600052602060002090601402016013018b8154811015156141c157fe5b90600052602060002001549550856040519080825280602002602001820160405280156141f8578160200160208202803883390190505b50945085604051908082528060200260200182016040528015614225578160200160208202803883390190505b50935085604051908082528060200260200182016040528015614252578160200160208202803883390190505b5092508560405190808252806020026020018201604052801561427f578160200160208202803883390190505b509150600090505b858110156144a55760008c8152601e60205260409020546019805490919081106142ad57fe5b9060005260206000209060140201600f018b8154811015156142cb57fe5b90600052602060002001818154811015156142e257fe5b6000918252602090912001548551600160a060020a039091169086908390811061430857fe5b600160a060020a03909216602092830290910182015260008d8152601e909152604090205460198054909190811061433c57fe5b90600052602060002090601402016010018b81548110151561435a57fe5b906000526020600020018181548110151561437157fe5b6000918252602090912001548451600160a060020a039091169085908390811061439757fe5b600160a060020a03909216602092830290910182015260008d8152601e90915260409020546019805490919081106143cb57fe5b90600052602060002090601402016011018b8154811015156143e957fe5b906000526020600020018181548110151561440057fe5b9060005260206000200154838281518110151561441957fe5b602090810290910181019190915260008d8152601e909152604090205460198054909190811061444557fe5b90600052602060002090601402016012018b81548110151561446357fe5b906000526020600020018181548110151561447a57fe5b9060005260206000200154828281518110151561449357fe5b60209081029091010152600101614287565b50929a91995097509095509350505050565b6000828152601e60205260409020546019805460609283929181106144d857fe5b9060005260206000209060140201600a01838154811015156144f657fe5b906000526020600020016019601e60008781526020019081526020016000205481548110151561452257fe5b9060005260206000209060140201600b018481548110151561116757fe5b60008061454e3385856151c6565b949350505050565b601980548290811061456457fe5b906000526020600020906014020160009150905080600001549080600101549080600201549080600301549080600601549080600d01549080600e0154905087565b600354600090600160a060020a031633146145f9576040805160e560020a62461bcd028152602060048201526016602482015260008051602061976a833981519152604482015290519081900360640190fd5b600160a060020a0380831660008181526016602090815260408083205483526015909152902054909116141561463157506001612b16565b506000612b16565b60606000806000806060600061464d617ba1565b955085945060009350601754925082604051908082528060200260200182016040528015614685578160200160208202803883390190505b509150600090505b828110156147af578286101561472057600160a060020a0380891660009081526008602090815260408083205490931682526016905220546009805490919081106146d457fe5b90600052602060002090600c0201600501868154811015156146f257fe5b9060005260206000200154828281518110151561470b57fe5b602090810290910101526001909501946147a7565b848410156147a757600160a060020a03808916600090815260086020908152604080832054909316825260169052205460098054909190811061475f57fe5b90600052602060002090600c02016005018481548110151561477d57fe5b9060005260206000200154828281518110151561479657fe5b602090810290910101526001909301925b60010161468d565b509695505050505050565b600354600160a060020a0316331461480a576040805160e560020a62461bcd028152602060048201526016602482015260008051602061976a833981519152604482015290519081900360640190fd5b614812617be6565b565b33600081815260086020818152604080842054600160a060020a039081168086526016845282862054865260158452918520549486905292909152911614614894576040805160e560020a62461bcd028152602060048201526014602482015260008051602061974a833981519152604482015290519081900360640190fd5b600d8054600181810183557fd7b6990105719101dabeb77144f2a3385c8033acd3af97e9423a695e81ad1eb5909101859055600e80548083019091557fbb7b4a454dc3493923482f07822329ed19e8244eff582cc204f8554c3620c3fd01849055600f805491820181556000527f8d1108e10bcb7c27dddfc02ed9d693a074039d026cf4ea4240b40f7d581ac802018054600160a060020a03191633179055805460408051602083810282018101909252828152614a35939092909183018282801561497f57602002820191906000526020600020905b81548152602001906001019080831161496b575b5050505050600e8054806020026020016040519081016040528092919081815260200182805480156149d057602002820191906000526020600020905b8154815260200190600101908083116149bc575b5050505050600f805480602002602001604051908101604052809291908181526020018280548015614a2b57602002820191906000526020600020905b8154600160a060020a03168152600190910190602001808311614a0d575b50505050506183b2565b8051600d90600090600e908290614a5390600f9060208801906194f6565b50508451614a6691906020870190619463565b50508351614a7991906020860190619463565b50505050505050565b6002546101009004600160a060020a03163314614ad7576040805160e560020a62461bcd028152602060048201526016602482015260008051602061976a833981519152604482015290519081900360640190fd5b601a55565b600454600160a060020a031681565b6004543390600160a060020a03168114614b4f576040805160e560020a62461bcd02815260206004820152601e60248201527f4e6f742047656e657261746f72204170706c69636174696f6e204e6f64650000604482015290519081900360640190fd5b6000828152601e6020526040902054601980548692908110614b6d57fe5b9060005260206000209060140201600d0181905550826019601e600085815260200190815260200160002054815481101515614ba557fe5b9060005260206000209060140201600e018190555050505050565b60115481565b600160a060020a031660009081526006602052604090205490565b6000805b8351811015614c2b5782600160a060020a03168482815181101515614c0657fe5b90602001906020020151600160a060020a03161415614c23578091505b600101614be5565b5092915050565b6000828152601e602052604090205460198054614e0292908110614c5257fe5b906000526020600020906014020160070182815481101515614c7057fe5b90600052602060002001805480602002602001604051908101604052809291908181526020018280548015614cc457602002820191906000526020600020905b815481526020019060010190808311614cb0575b5050506000868152601e6020526040902054601980549093509091508110614ce857fe5b906000526020600020906014020160080183815481101515614d0657fe5b90600052602060002001805480602002602001604051908101604052809291908181526020018280548015614d5a57602002820191906000526020600020905b815481526020019060010190808311614d46575b5050506000878152601e6020526040902054601980549093509091508110614d7e57fe5b906000526020600020906014020160090184815481101515614d9c57fe5b906000526020600020018054806020026020016040519081016040528092919081815260200182805480156140ba57602002820191906000526020600020908154600160a060020a0316815260019091019060200180831161409c575050505050617886565b6000858152601e6020526040902054601980549091908110614e2057fe5b906000526020600020906014020160070184815481101515614e3e57fe5b9060005260206000200160006019601e600089815260200190815260200160002054815481101515614e6c57fe5b906000526020600020906014020160080186815481101515614e8a57fe5b9060005260206000200160006019601e60008b815260200190815260200160002054815481101515614eb857fe5b906000526020600020906014020160090188815481101515614ed657fe5b60009182526020918290208751614ef49392909101918801906194f6565b50508451614f0791906020870190619463565b50508351614f1a91906020860190619463565b505050505050565b6000828152601e6020526040902054601980546150f292908110614f4257fe5b9060005260206000209060140201600a0182815481101515614f6057fe5b90600052602060002001805480602002602001604051908101604052809291908181526020018280548015614fb457602002820191906000526020600020905b815481526020019060010190808311614fa0575b5050506000868152601e6020526040902054601980549093509091508110614fd857fe5b9060005260206000209060140201600b0183815481101515614ff657fe5b9060005260206000200180548060200260200160405190810160405280929190818152602001828054801561504a57602002820191906000526020600020905b815481526020019060010190808311615036575b5050506000878152601e602052604090205460198054909350909150811061506e57fe5b9060005260206000209060140201600c018481548110151561508c57fe5b90600052602060002001805480602002602001604051908101604052809291908181526020018280548015614a2b57602002820191906000526020600020908154600160a060020a03168152600190910190602001808311614a0d5750505050506183b2565b6000858152601e602052604090205460198054909190811061511057fe5b9060005260206000209060140201600a018481548110151561512e57fe5b9060005260206000200160006019601e60008981526020019081526020016000205481548110151561515c57fe5b9060005260206000209060140201600b018681548110151561517a57fe5b9060005260206000200160006019601e60008b8152602001908152602001600020548154811015156151a857fe5b9060005260206000209060140201600c0188815481101515614ed657fe5b600160a060020a0383166000908152600660205260408120548190831161528f5750600160a060020a0380841660008181526006602090815260408083208054958a1680855282852080548a81039091559486905281548901909155815188815291519390950194927fddf252ad1be2c89b69c2b068fc378daa952ba7f163c4a11628f55a4df523b3ef929181900390910190a3600160a060020a0380851660009081526006602052604080822054928816825290205401811461528657fe5b60019150612138565b60009150612138565b6000805b60175481101561538257600160a060020a0383166000908152601660205260409020546009805490919081106152ce57fe5b6000918252602080832060408051808401909152848152600c93909302016006018054600180820180845592865292909420909361530e939101916195b0565b5050600160a060020a03831660009081526016602052604090205460098054909190811061533857fe5b6000918252602080832060408051808401909152848152600c939093020160070180546001808201808455928652929094209093615378939101916195b0565b505060010161529c565b600191505b600160a060020a03831660009081526016602052604081205460098054601993601e9390929181106153b557fe5b90600052602060002090600c0201600101548152602001908152602001600020548154811015156153e257fe5b906000526020600020906014020160050180549050821015615600575060005b6017548110156155f5576009601660006019601e60006009601660008b600160a060020a0316600160a060020a031681526020019081526020016000205481548110151561544c57fe5b90600052602060002090600c02016001015481526020019081526020016000205481548110151561547957fe5b90600052602060002090601402016005018581548110151561549757fe5b6000918252602080832090910154600160a060020a03168352820192909252604001902054815481106154c657fe5b90600052602060002090600c0201600601818154811015156154e457fe5b60009182526020808320909101805460018101825590835281832001829055600160a060020a0385168252601690819052604082205460098054909391601991601e918491879190811061553457fe5b90600052602060002090600c02016001015481526020019081526020016000205481548110151561556157fe5b90600052602060002090601402016005018581548110151561557f57fe5b6000918252602080832090910154600160a060020a03168352820192909252604001902054815481106155ae57fe5b90600052602060002090600c0201600701818154811015156155cc57fe5b600091825260208083209091018054600181810183559184529183209091019190915501615402565b600190910190615387565b600091505b600160a060020a03831660009081526016602052604081205460098054600193601993601e939192811061563557fe5b90600052602060002090600c02016001015481526020019081526020016000205481548110151561566257fe5b90600052602060002090601402016005018054905003821015612087575060005b6017548110156157a957600160a060020a0383166000908152601660205260409020546009805490919081106156b557fe5b90600052602060002090600c0201600601818154811015156156d357fe5b60009182526020808320909101805460018101825590835281832001829055600160a060020a038516825260169052604090205460098054909190811061571657fe5b90600052602060002090600c02016007018181548110151561573457fe5b60009182526020808320909101805460018101825590835281832001829055600160a060020a038516825260169052604090205460098054909190811061577757fe5b600091825260208083206008600c90930201919091018054600181810183559184529183209091019190915501615683565b600190910190615605565b60005b601754811015612087576000838152601e60205260409020546019805490919081106157df57fe5b9060005260206000209060140201600701818154811015156157fd57fe5b9060005260206000200160016019601e60008781526020019081526020016000205481548110151561582b57fe5b60009182526020808320600d601490930201919091015484546001810186559483528183209390039290930191909155848152601e909152604090205460198054909190811061587757fe5b90600052602060002090601402016008018181548110151561589557fe5b60009182526020808320909101805460018101825590835281832001829055848252601e905260409020546019805490919081106158cf57fe5b9060005260206000209060140201600a01818154811015156158ed57fe5b906000526020600020016019601e60008681526020019081526020016000205481548110151561591957fe5b60009182526020808320600e601490930201919091015483546001818101865594845282842094909101930192909255848152601e909152604090205460198054909190811061596557fe5b9060005260206000209060140201600b018181548110151561598357fe5b60009182526020808320909101805460018101825590835281832001829055848252601e905260409020546019805490919081106159bd57fe5b9060005260206000209060140201600c01818154811015156159db57fe5b60009182526020808320919091018054600181018255908352818320018054600160a060020a031916600160a060020a038616179055848252601e90526040902054601980549091908110615a2c57fe5b906000526020600020906014020160090181815481101515615a4a57fe5b600091825260208083209190910180546001808201835591845291909220018054600160a060020a031916600160a060020a038516179055016157b7565b60005b601754811015615aef57600160a060020a038216600090815260166020526040902054600980549091908110615abd57fe5b600091825260208083206005600c90930201919091018054600181810183559184529183209091019190915501615a8b565b5050565b60005b601754811015615aef57615b0a8282614c32565b615b148282614f22565b600101615af6565b6000806000615b29617ba1565b9150600160175403821415615b4057506000615b46565b50600181015b92915050565b33600090815260166020526040812054600980549091908110615b6b57fe5b600091825260208083206002600c90930201919091019290925533815260169091526040902054600980549091908110615ba157fe5b90600052602060002090600c02016000015460021415615bf45733600090815260166020526040812054600980549091908110615bda57fe5b90600052602060002090600c020160030181905550615c29565b33600090815260166020526040812054600980549091908110615c1357fe5b90600052602060002090600c0201600301819055505b3360009081526016602052604081205460098054600193601993601e9391928110615c5057fe5b90600052602060002090600c020160010154815260200190815260200160002054815481101515615c7d57fe5b60009182526020808320338452601f909152604090922054600460149092029092010180549091908110615cad57fe5b60009182526020808320909101929092553381526016909152604090205460098054615cf392908110615cdc57fe5b90600052602060002090600c0201600101546186b6565b3360009081526016602052604081205460098054601993601e939092918110615d1857fe5b90600052602060002090600c020160010154815260200190815260200160002054815481101515615d4557fe5b906000526020600020906014020160020154601b54014210151561481257336000908152601660205260409020546009805461481292908110615d8457fe5b90600052602060002090600c020160010154618871565b33600090815260166020526040812054600980548392908110615dba57fe5b90600052602060002090600c0201600901541115615aef57600160a060020a03821660009081526016602052604090205460098054610e1092908110615dfc57fe5b90600052602060002090600c020160090154811515615e1757fe5b0460010190506019601e600060096016600087600160a060020a0316600160a060020a0316815260200190815260200160002054815481101515615e5757fe5b90600052602060002090600c020160010154815260200190815260200160002054815481101515615e8457fe5b9060005260206000209060140201600d0154601a548202029050600081118015615ebc57503360009081526006602052604090205481105b15615f5357600454615ed790600160a060020a031682614540565b50600160a060020a038216600090815260166020526040812054600980549091908110615f0057fe5b600091825260208083206009600c90930201820193909355600160a060020a038516825260169092526040902054815460019291908110615f3d57fe5b90600052602060002090600c0201600a01819055505b600081118015615f7157503360009081526006602052604090205481115b15615aef57600160a060020a038216600090815260166020526040812054600980549091908110615f9e57fe5b90600052602060002090600c0201600a01819055505050565b600060208190556021819055600181808080615fd1615b1c565b905080871415615fe557615fe58888618946565b6000888152601e602052604090205460198054909190811061600357fe5b9060005260206000209060140201600301546002141561631f576000888152601e60205260409020546019805461631b9290811061603d57fe5b90600052602060002090601402016007018881548110151561605b57fe5b906000526020600020018054806020026020016040519081016040528092919081815260200182805480156160af57602002820191906000526020600020905b81548152602001906001019080831161609b575b50505060008c8152601e60205260409020546019805490935090915081106160d357fe5b9060005260206000209060140201600801898154811015156160f157fe5b9060005260206000200180548060200260200160405190810160405280929190818152602001828054801561614557602002820191906000526020600020905b815481526020019060010190808311616131575b50505060008d8152601e602052604090205460198054909350909150811061616957fe5b9060005260206000209060140201600a018a81548110151561618757fe5b906000526020600020018054806020026020016040519081016040528092919081815260200182805480156161db57602002820191906000526020600020905b8154815260200190600101908083116161c7575b50505060008e8152601e60205260409020546019805490935090915081106161ff57fe5b9060005260206000209060140201600b018b81548110151561621d57fe5b9060005260206000200180548060200260200160405190810160405280929190818152602001828054801561627157602002820191906000526020600020905b81548152602001906001019080831161625d575b50505060008f8152601e602052604090205460198054909350909150811061629557fe5b9060005260206000209060140201600c018c8154811015156162b357fe5b9060005260206000200180548060200260200160405190810160405280929190818152602001828054801561631157602002820191906000526020600020905b8154600160a060020a031681526001909101906020018083116162f3575b5050505050618a4c565b6022555b60008511801561637757506000888152601e602052604090205460198054909190811061634857fe5b9060005260206000209060140201600a018781548110151561636657fe5b600091825260209091200154602154105b80156163cd57506000888152601e602052604090205460198054909190811061639c57fe5b9060005260206000209060140201600701878154811015156163ba57fe5b9060005260206000200180549050602054105b156127db576000888152601e60205260409020546019805490919081106163f057fe5b9060005260206000209060140201600a018781548110151561640e57fe5b9060005260206000200160215481548110151561642757fe5b90600052602060002001546019601e60008b81526020019081526020016000205481548110151561645457fe5b90600052602060002090601402016007018881548110151561647257fe5b9060005260206000200160205481548110151561648b57fe5b90600052602060002001541115156170a2576000888152601e60205260409020546019805490919081106164bb57fe5b9060005260206000209060140201600b01878154811015156164d957fe5b906000526020600020016021548154811015156164f257fe5b90600052602060002001546019601e60008b81526020019081526020016000205481548110151561651f57fe5b90600052602060002090601402016008018881548110151561653d57fe5b9060005260206000200160205481548110151561655657fe5b90600052602060002001541415616882576000888152601e60205260409020546019805460029290811061658657fe5b9060005260206000209060140201600a01888154811015156165a457fe5b906000526020600020016021548154811015156165bd57fe5b90600052602060002001546019601e60008c8152602001908152602001600020548154811015156165ea57fe5b90600052602060002090601402016007018981548110151561660857fe5b9060005260206000200160205481548110151561662157fe5b90600052602060002001540181151561663657fe5b60008a8152601e6020526040902054601980549390920496509091811061665957fe5b90600052602060002090601402016008018781548110151561667757fe5b9060005260206000200160205481548110151561669057fe5b9060005260206000200154925082600014156166c05760218054600190810190915560208054909101905561687d565b601a546000898152601e60205260408120546019805488880290940295508593600693929081106166ed57fe5b9060005260206000209060140201600c018a81548110151561670b57fe5b9060005260206000200160215481548110151561672457fe5b6000918252602080832090910154600160a060020a031683528201929092526040019020541115616812576000888152601e602052604090205460198054909190811061676d57fe5b906000526020600020906014020160030154600214156167995761679360225484618ee3565b506167a5565b6167a38484618ee3565b505b6000888152601e60205260408120546019805490919081106167c357fe5b9060005260206000209060140201600801888154811015156167e157fe5b906000526020600020016020548154811015156167fa57fe5b60009182526020918290200191909155805460010190555b6000888152601e602052604081205460198054909190811061683057fe5b9060005260206000209060140201600b018881548110151561684e57fe5b9060005260206000200160215481548110151561686757fe5b6000918252602090912001556021805460010190555b61709d565b6000888152601e60205260409020546019805490919081106168a057fe5b9060005260206000209060140201600b01878154811015156168be57fe5b906000526020600020016021548154811015156168d757fe5b90600052602060002001546019601e60008b81526020019081526020016000205481548110151561690457fe5b90600052602060002090601402016008018881548110151561692257fe5b9060005260206000200160205481548110151561693b57fe5b90600052602060002001541115616cc9576000888152601e602052604090205460198054909190811061696a57fe5b9060005260206000209060140201600b018781548110151561698857fe5b906000526020600020016021548154811015156169a157fe5b90600052602060002001546019601e60008b8152602001908152602001600020548154811015156169ce57fe5b9060005260206000209060140201600801888154811015156169ec57fe5b90600052602060002001602054815481101515616a0557fe5b906000526020600020015403955060026019601e60008b815260200190815260200160002054815481101515616a3757fe5b9060005260206000209060140201600a0188815481101515616a5557fe5b90600052602060002001602154815481101515616a6e57fe5b90600052602060002001546019601e60008c815260200190815260200160002054815481101515616a9b57fe5b906000526020600020906014020160070189815481101515616ab957fe5b90600052602060002001602054815481101515616ad257fe5b906000526020600020015401811515616ae757fe5b60008a8152601e60205260409020546019805493909204965090918110616b0a57fe5b9060005260206000209060140201600b0187815481101515616b2857fe5b90600052602060002001602154815481101515616b4157fe5b906000526020600020015492508260001415616b655760218054600101905561687d565b601a546000898152601e6020526040812054601980548888029094029550859360069392908110616b9257fe5b9060005260206000209060140201600c018a815481101515616bb057fe5b90600052602060002001602154815481101515616bc957fe5b6000918252602080832090910154600160a060020a031683528201929092526040019020541115616812576000888152601e6020526040902054601980549091908110616c1257fe5b90600052602060002090601402016003015460021415616c3e57616c3860225484618ee3565b50616c4a565b616c488484618ee3565b505b6000888152601e6020526040902054601980548892908110616c6857fe5b906000526020600020906014020160080188815481101515616c8657fe5b90600052602060002001602054815481101515616c9f57fe5b6000918252602090912001556000888152601e602052604081205460198054909190811061683057fe5b6000888152601e6020526040902054601980549091908110616ce757fe5b906000526020600020906014020160080187815481101515616d0557fe5b90600052602060002001602054815481101515616d1e57fe5b90600052602060002001546019601e60008b815260200190815260200160002054815481101515616d4b57fe5b9060005260206000209060140201600b0188815481101515616d6957fe5b90600052602060002001602154815481101515616d8257fe5b906000526020600020015403955060026019601e60008b815260200190815260200160002054815481101515616db457fe5b9060005260206000209060140201600a0188815481101515616dd257fe5b90600052602060002001602154815481101515616deb57fe5b90600052602060002001546019601e60008c815260200190815260200160002054815481101515616e1857fe5b906000526020600020906014020160070189815481101515616e3657fe5b90600052602060002001602054815481101515616e4f57fe5b906000526020600020015401811515616e6457fe5b60008a8152601e60205260409020546019805493909204965090918110616e8757fe5b906000526020600020906014020160080187815481101515616ea557fe5b90600052602060002001602054815481101515616ebe57fe5b906000526020600020015492508260001415616ee25760208054600101905561709d565b601a546000898152601e6020526040812054601980548888029094029550859360069392908110616f0f57fe5b9060005260206000209060140201600c018a815481101515616f2d57fe5b90600052602060002001602154815481101515616f4657fe5b6000918252602080832090910154600160a060020a03168352820192909252604001902054111561709d576000888152601e6020526040902054601980549091908110616f8f57fe5b90600052602060002090601402016003015460021415616fbb57616fb560225484618ee3565b50616fc7565b616fc58484618ee3565b505b6000888152601e6020526040902054601980548892908110616fe557fe5b9060005260206000209060140201600b018881548110151561700357fe5b9060005260206000200160215481548110151561701c57fe5b906000526020600020018190555060006019601e60008b81526020019081526020016000205481548110151561704e57fe5b90600052602060002090601402016008018881548110151561706c57fe5b9060005260206000200160205481548110151561708557fe5b60009182526020918290200191909155805460010190555b6170d6565b600094506170ae615b1c565b9050808714156170c2576170c28888619276565b6170cc8888614c32565b6170d68888614f22565b61631f565b60015b6000828152601e60205260409020546019805490919081106170fc57fe5b906000526020600020906014020160040180549050811015615aef576000828152601e602052604081205460198054909190811061713657fe5b90600052602060002090601402016004018281548110151561715457fe5b6000918252602090912001556001016170de565b600354600090600160a060020a0316331415615aef575060005b6000828152601e60205260409020546019805490919081106171a057fe5b906000526020600020906014020160050180549050811015615aef57600454336000908152601660205260408120546009805461731194600160a060020a031693601993601e93919281106171f157fe5b90600052602060002090600c02016001015481526020019081526020016000205481548110151561721e57fe5b90600052602060002090601402016005018381548110151561723c57fe5b6000918252602080832090910154338352601691829052604083205460098054600160a060020a03909316949093929091601991601e918491879190811061728057fe5b90600052602060002090600c0201600101548152602001908152602001600020548154811015156172ad57fe5b9060005260206000209060140201600501878154811015156172cb57fe5b6000918252602080832090910154600160a060020a03168352820192909252604001902054815481106172fa57fe5b90600052602060002090600c0201600b015461208c565b1515600114156173d857336000908152601660208190526040822054600980549092918491601991601e9184918791811061734857fe5b90600052602060002090600c02016001015481526020019081526020016000205481548110151561737557fe5b90600052602060002090601402016005018581548110151561739357fe5b6000918252602080832090910154600160a060020a03168352820192909252604001902054815481106173c257fe5b90600052602060002090600c0201600b01819055505b600101617182565b60005b601754811015615aef576000828152601e602052604090205460198054909190811061740b57fe5b600091825260208083206040805180840190915284815260149390930201600f018054600180820180845592865292909420909361744b939101916195f0565b50506000828152601e602052604090205460198054909190811061746b57fe5b600091825260208083206040805180840190915284815260149390930201601001805460018082018084559286529290942090936174ab939101916195f0565b50506000828152601e60205260409020546019805490919081106174cb57fe5b6000918252602080832060408051808401909152848152601493909302016011018054600180820180845592865292909420909361750b939101916195b0565b50506000828152601e602052604090205460198054909190811061752b57fe5b6000918252602080832060408051808401909152848152601493909302016012018054600180820180845592865292909420909361756b939101916195b0565b50506000828152601e602052604090205460198054909190811061758b57fe5b60009182526020808320601360149093020191909101805460018101825590835281832001829055838252601e905260409020546019805490919081106175ce57fe5b90600052602060002090601402016007016020604051908101604052806019601e60008781526020019081526020016000205481548110151561760d57fe5b60009182526020808320600d6014909302019190910154909252835460018181018087559583529290912061764493910191619463565b50506000828152601e602052604090205460198054909190811061766457fe5b6000918252602080832060408051808401909152655af3107a3fff815260149390930201600801805460018082018084559286529290942090936176aa9391019161963f565b50506000828152601e60205260409020546019805490919081106176ca57fe5b9060005260206000209060140201600a016020604051908101604052806019601e60008781526020019081526020016000205481548110151561770957fe5b60009182526020808320600e6014909302019190910154909252835460018181018087559583529290912061774093910191619463565b50506000828152601e602052604090205460198054909190811061776057fe5b6000918252602080832060408051808401909152655af3107a3fff815260149390930201600b01805460018082018084559286529290942090936177a69391019161963f565b50506000828152601e60205260409020546019805490919081106177c657fe5b6000918252602080832060408051808401909152600454600160a060020a0316815260149390930201600c0180546001808201808455928652929094209093617811939101916194f6565b50506000828152601e602052604090205460198054909190811061783157fe5b6000918252602080832060408051808401909152600454600160a060020a03168152601493909302016009018054600180820180845592865292909420909361787c939101916194f6565b50506001016173e3565b6060806060600060608060606000806000806000808f519950896040519080825280602002602001820160405280156178c9578160200160208202803883390190505b509850896040519080825280602002602001820160405280156178f6578160200160208202803883390190505b50975089604051908082528060200260200182016040528015617923578160200160208202803883390190505b509650600095505b898610156179db578f8681518110151561794157fe5b90602001906020020151898781518110151561795957fe5b602090810290910101528e518f908790811061797157fe5b90602001906020020151888781518110151561798957fe5b602090810290910101528d518e90879081106179a157fe5b9060200190602002015187878151811015156179b957fe5b600160a060020a0390921660209283029091019091015260019095019461792b565b600094505b89851015617b8a578460010193505b89841015617b7f578884815181101515617a0557fe5b906020019060200201518986815181101515617a1d57fe5b906020019060200201511115617b74578884815181101515617a3b57fe5b9060200190602002015192508885815181101515617a5557fe5b906020019060200201518985815181101515617a6d57fe5b60209081029091010152885183908a9087908110617a8757fe5b602090810290910101528751889085908110617a9f57fe5b9060200190602002015191508785815181101515617ab957fe5b906020019060200201518885815181101515617ad157fe5b6020908102909101015287518290899087908110617aeb57fe5b602090810290910101528651879085908110617b0357fe5b9060200190602002015190508685815181101515617b1d57fe5b906020019060200201518785815181101515617b3557fe5b600160a060020a0390921660209283029091019091015286518190889087908110617b5c57fe5b600160a060020a039092166020928302909101909101525b6001909301926179ef565b6001909401936179e0565b50969e959d50939b50939950505050505050505050565b6018546000908190420381806105a083049150506105a081028203603c81049250821515617bd6576001601754039350617bdd565b6001830393505b50919392505050565b60016010819055600090818080805b60008560ff16118015617c0a5750600a546000105b8015617c185750600d546000105b15614f1a5760009050600d6000815481101515617c3157fe5b9060005260206000200154600a6000815481101515617c4c57fe5b90600052602060002001541115156183a857600e80546000908110617c6d57fe5b9060005260206000200154600b6000815481101515617c8857fe5b90600052602060002001541415617f6c576002600d6000815481101515617cab57fe5b9060005260206000200154600a6000815481101515617cc657fe5b906000526020600020015401811515617cdb57fe5b049350600b6000815481101515617cee57fe5b90600052602060002001549250617d058484618ee3565b60021415617e3f578091505b600e5460001901821015617df957600e805460018401908110617d3057fe5b9060005260206000200154600e83815481101515617d4a57fe5b600091825260209091200155600d805460018401908110617d6757fe5b9060005260206000200154600d83815481101515617d8157fe5b600091825260209091200155600f805460018401908110617d9e57fe5b600091825260209091200154600f8054600160a060020a039092169184908110617dc457fe5b60009182526020909120018054600160a060020a031916600160a060020a039290921691909117905560019190910190617d11565b600e805490617e0c906000198301619684565b50600d805490617e20906000198301619684565b50600f805490617e34906000198301619684565b506010805460010190555b8091505b600b5460001901821015617f2b57600b805460018401908110617e6257fe5b9060005260206000200154600b83815481101515617e7c57fe5b600091825260209091200155600a805460018401908110617e9957fe5b9060005260206000200154600a83815481101515617eb357fe5b600091825260209091200155600c805460018401908110617ed057fe5b600091825260209091200154600c8054600160a060020a039092169184908110617ef657fe5b60009182526020909120018054600160a060020a031916600160a060020a039290921691909117905560019190910190617e43565b600b805490617f3e906000198301619684565b50600a805490617f52906000198301619684565b50600c805490617f66906000198301619684565b506183a3565b600e80546000908110617f7b57fe5b9060005260206000200154600b6000815481101515617f9657fe5b906000526020600020015411156181a757600e80546000908110617fb657fe5b9060005260206000200154600b6000815481101515617fd157fe5b90600052602060002001540395506002600d6000815481101515617ff157fe5b9060005260206000200154600a600081548110151561800c57fe5b90600052602060002001540181151561802157fe5b049350600e600081548110151561803457fe5b9060005260206000200154925061804b8484618ee3565b60021415618185578091505b600e546000190182101561813f57600e80546001840190811061807657fe5b9060005260206000200154600e8381548110151561809057fe5b600091825260209091200155600d8054600184019081106180ad57fe5b9060005260206000200154600d838154811015156180c757fe5b600091825260209091200155600f8054600184019081106180e457fe5b600091825260209091200154600f8054600160a060020a03909216918490811061810a57fe5b60009182526020909120018054600160a060020a031916600160a060020a039290921691909117905560019190910190618057565b600e805490618152906000198301619684565b50600d805490618166906000198301619684565b50600f80549061817a906000198301619684565b506010805460010190555b85600b600081548110151561819657fe5b6000918252602090912001556183a3565b600b805460009081106181b657fe5b9060005260206000200154600e60008154811015156181d157fe5b90600052602060002001540395506002600d60008154811015156181f157fe5b9060005260206000200154600a600081548110151561820c57fe5b90600052602060002001540181151561822157fe5b049350600b600081548110151561823457fe5b9060005260206000200154925061824b8484618ee3565b600214156182715785600e600081548110151561826457fe5b6000918252602090912001555b8091505b600b546000190182101561835d57600b80546001840190811061829457fe5b9060005260206000200154600b838154811015156182ae57fe5b600091825260209091200155600a8054600184019081106182cb57fe5b9060005260206000200154600a838154811015156182e557fe5b600091825260209091200155600c80546001840190811061830257fe5b600091825260209091200154600c8054600160a060020a03909216918490811061832857fe5b60009182526020909120018054600160a060020a031916600160a060020a039290921691909117905560019190910190618275565b600b805490618370906000198301619684565b50600a805490618384906000198301619684565b50600c805490618398906000198301619684565b506010805460010190555b6183ad565b600094505b617bf5565b6060806060600060608060606000806000806000808f519950896040519080825280602002602001820160405280156183f5578160200160208202803883390190505b50985089604051908082528060200260200182016040528015618422578160200160208202803883390190505b5097508960405190808252806020026020018201604052801561844f578160200160208202803883390190505b509650600095505b89861015618507578f8681518110151561846d57fe5b90602001906020020151898781518110151561848557fe5b602090810290910101528e518f908790811061849d57fe5b9060200190602002015188878151811015156184b557fe5b602090810290910101528d518e90879081106184cd57fe5b9060200190602002015187878151811015156184e557fe5b600160a060020a03909216602092830290910190910152600190950194618457565b600094505b89851015617b8a578460010193505b898410156186ab57888481518110151561853157fe5b90602001906020020151898681518110151561854957fe5b9060200190602002015110156186a057888481518110151561856757fe5b906020019060200201519250888581518110151561858157fe5b90602001906020020151898581518110151561859957fe5b60209081029091010152885183908a90879081106185b357fe5b6020908102909101015287518890859081106185cb57fe5b90602001906020020151915087858151811015156185e557fe5b9060200190602002015188858151811015156185fd57fe5b602090810290910101528751829089908790811061861757fe5b60209081029091010152865187908590811061862f57fe5b906020019060200201519050868581518110151561864957fe5b90602001906020020151878581518110151561866157fe5b600160a060020a039092166020928302909101909101528651819088908790811061868857fe5b600160a060020a039092166020928302909101909101525b60019093019261851b565b60019094019361850c565b601b546000828152601e60205260409020546019805490919081106186d757fe5b90600052602060002090601402016006015401421015156187f5575b601b546000828152601e602052604090205460198054909190811061871457fe5b90600052602060002090601402016006015401421015156187f0576000818152601e602052604090205460198054909190811061874d57fe5b906000526020600020906014020160060154601c540160096016600033600160a060020a0316600160a060020a031681526020019081526020016000205481548110151561879757fe5b90600052602060002090600c020160040181905550601c546019601e6000848152602001908152602001600020548154811015156187d157fe5b60009182526020909120600660149092020101805490910190556186f3565b611fa1565b6000818152601e602052604090205460198054909190811061881357fe5b90600052602060002090601402016006015460096016600033600160a060020a0316600160a060020a031681526020019081526020016000205481548110151561885957fe5b90600052602060002090600c02016004018190555050565b6000818152601e602052604090205460198054909190811061888f57fe5b9060005260206000209060140201600601546019601e6000848152602001908152602001600020548154811015156188c357fe5b90600052602060002090601402016002018190555060006019601e6000848152602001908152602001600020548154811015156188fc57fe5b60009182526020808320601490920290910192909255828152601e909152604081205460198054909190811061892e57fe5b90600052602060002090601402016001018190555050565b60005b6000838152601e602052604090205460198054909190811061896757fe5b90600052602060002090601402016011018281548110151561898557fe5b6000918252602090912001548110156189ff576000838152601e60205260408120546019805490919081106189b657fe5b9060005260206000209060140201601101838154811015156189d457fe5b90600052602060002001828154811015156189eb57fe5b600091825260209091200155600101618949565b6000838152601e6020526040812054601980549091908110618a1d57fe5b906000526020600020906014020160130183815481101515618a3b57fe5b600091825260209091200155505050565b6000602081905560218190558060018180805b600084118015618a7157508851602154105b8015618a7f57508a51602054105b15618ed05788602154815181101515618a9457fe5b906020019060200201518b602054815181101515618aae57fe5b6020908102909101015111618ec65787602154815181101515618acd57fe5b906020019060200201518a602054815181101515618ae757fe5b906020019060200201511415618c1b57600289602154815181101515618b0957fe5b906020019060200201518c602054815181101515618b2357fe5b9060200190602002015101811515618b3757fe5b04925089602054815181101515618b4a57fe5b9060200190602002015191508160001415618b7957602180546001908101909155602080549091019055618c16565b601a54828402029050806006600089602154815181101515618b9757fe5b90602001906020020151600160a060020a0316600160a060020a03168152602001908152602001600020541115618bf05760008a602054815181101515618bda57fe5b6020908102909101810191909152805460010190555b600088602154815181101515618c0257fe5b602090810290910101526021805460010190555b618ec1565b87602154815181101515618c2b57fe5b906020019060200201518a602054815181101515618c4557fe5b906020019060200201511115618d7e5788602154815181101515618c6557fe5b906020019060200201518a602054815181101515618c7f57fe5b90602001906020020151039450600289602154815181101515618c9e57fe5b906020019060200201518c602054815181101515618cb857fe5b9060200190602002015101811515618ccc57fe5b04925087602154815181101515618cdf57fe5b9060200190602002015191508160001415618d0257602180546001019055618c16565b601a54828402029050806006600089602154815181101515618d2057fe5b90602001906020020151600160a060020a0316600160a060020a03168152602001908152602001600020541115618bf057848a602054815181101515618d6257fe5b60209081029091010152600088602154815181101515618c0257fe5b89602054815181101515618d8e57fe5b9060200190602002015188602154815181101515618da857fe5b90602001906020020151039450600289602154815181101515618dc757fe5b906020019060200201518c602054815181101515618de157fe5b9060200190602002015101811515618df557fe5b04925089602054815181101515618e0857fe5b9060200190602002015191508160001415618e2b57602080546001019055618ec1565b601a54828402029050806006600089602154815181101515618e4957fe5b90602001906020020151600160a060020a0316600160a060020a03168152602001908152602001600020541115618ec1578488602154815181101515618e8b57fe5b906020019060200201818152505060008a602054815181101515618eab57fe5b6020908102909101810191909152805460010190555b618ecb565b600093505b618a5f565b5050602281905598975050505050505050565b600c80546000916016918391829169021e19e0c9bab2400000919083908110618f0857fe5b6000918252602082200154600f8054600160a060020a039092169290918110618f2d57fe5b6000918252602091829020015460105460408051606060020a600160a060020a03968716810282870152959093169490940260348301524260488301526068808301919091528351808303909101815260889091019283905280519092918291908401908083835b60208310618fb45780518252601f199092019160209182019101618f95565b6001836020036101000a0380198251168184511680821785525050505050509050019150506040518091039020600190049250856006600060086000600c600081548110151561900057fe5b6000918252602080832090910154600160a060020a0390811684528382019490945260409283018220549093168452918301939093529101902054106192675761908f60086000600c600081548110151561905757fe5b6000918252602080832090910154600160a060020a03908116845290830193909352604090910190205460035490821691168861208c565b50600354600160a060020a03166000908152600760205260408120600f805489939190829081106190bc57fe5b6000918252602080832090910154600160a060020a0390811684528382019490945260409283018220805490950190945560035490921682526007909252908120600c8054899391908290811061910f57fe5b6000918252602080832090910154600160a060020a03168352820192909252604001902080549091019055808381151561914557fe5b0692506001601260c0604051908101604052808a8152602001898152602001600c600081548110151561917457fe5b6000918252602080832090910154600160a060020a03168352600f8054939091019290919081106191a157fe5b6000918252602080832090910154600160a060020a0390811684528382018a9052604093840183905285546001818101885596845282842086516006830290910190815586840151818901558686015160028083018054928616600160a060020a03199384161790556060890151600384018054919096169216919091179093556080870151600482015560a09096015160059096019590955595909303909301808452601383528184208890558784526014909252909120819055909550915061926c565b600194505b5050505092915050565b60005b6000838152601e602052604090205460198054909190811061929757fe5b9060005260206000209060140201600801828154811015156192b557fe5b60009182526020909120015481101561932f576000838152601e60205260408120546019805490919081106192e657fe5b90600052602060002090601402016008018381548110151561930457fe5b906000526020600020018281548110151561931b57fe5b600091825260209091200155600101619279565b5060005b6000838152601e602052604090205460198054909190811061935157fe5b9060005260206000209060140201600b018281548110151561936f57fe5b600091825260209091200154811015612087576000838152601e60205260408120546019805490919081106193a057fe5b9060005260206000209060140201600b01838154811015156193be57fe5b90600052602060002001828154811015156193d557fe5b600091825260209091200155600101619333565b828054600181600116156101000203166002900490600052602060002090601f016020900481019282601f1061942a57805160ff1916838001178555619457565b82800160010185558215619457579182015b8281111561945757825182559160200191906001019061943c565b506127ff9291506196a4565b828054828255906000526020600020908101928215619457579160200282018281111561945757825182559160200191906001019061943c565b8280548282559060005260206000209081019282156194ea579160200282015b828111156194ea57825180516194da918491602090910190619463565b50916020019190600101906194bd565b506127ff9291506196c1565b82805482825590600052602060002090810192821561954b579160200282015b8281111561954b5782518254600160a060020a031916600160a060020a03909116178255602090920191600190910190619516565b506127ff9291506196e4565b8280548282559060005260206000209081019282156195a4579160200282015b828111156195a457825180516195949184916020909101906194f6565b5091602001919060010190619577565b506127ff929150619708565b828054828255906000526020600020908101928215619457579160200282015b82811115619457578251829060ff169055916020019190600101906195d0565b82805482825590600052602060002090810192821561954b579160200282015b8281111561954b5782518254600160a060020a03191660ff909116178255602090920191600190910190619610565b828054828255906000526020600020908101928215619457579160200282015b82811115619457578251829065ffffffffffff1690559160200191906001019061965f565b815481835581811115612087576000838152602090206120879181019083015b6196be91905b808211156127ff57600081556001016196aa565b90565b6196be91905b808211156127ff5760006196db828261972b565b506001016196c7565b6196be91905b808211156127ff578054600160a060020a03191681556001016196ea565b6196be91905b808211156127ff576000619722828261972b565b5060010161970e565b5080546000825590600052602060002090810190611fa191906196a456004e6f74204170706c69636174696f6e204e6f646500000000000000000000000053656e646572206e6f7420417574686f72697365642e000000000000000000008c5be1e5ebec7d5bd14f71427d1e84f3dd0314c0f7b2291e5b200ac8c7c3b925cc16f5dbb4873280815c1ee09dbd06736cffcc184412cf7a71a0fdb75d397ca5a165627a7a72305820959528c296f6b2e14ca1479eb8a6fbb41a354f039cf2ae492a55b8d185f5e49c0029",
  "source": "pragma solidity ^0.4.25;\r\n\r\nimport \"./PeerEnergy.sol\";\r\ncontract PeerEnergy1 is PeerEnergy {\r\n\r\n/////////// 332 - 361\r\n\r\n\r\n\t/*This is use to bid energy a user is willing to provide to another user\r\n\t_price: euro cent/kWh\r\n\t_Qty: Wh quantity the user can produce in the next 15mins*/\r\n\tfunction placeSellOffer(uint _price, uint _Qty, uint _tim ) public OnlyAppNode(msg.sender) AskEnergyRequirements(_price) \r\n\t{\r\n\t    uint _GridNo=users[userAddresstoID[AppToSmartmeter[msg.sender]]].gridNo;\r\n\t    uint indxS=_getArrayIndex(grids[gridIDToNo[_GridNo]].ESaddr[_tim], AppToSmartmeter[msg.sender]);\r\n\t    uint indxB=\t_getArrayIndex(grids[gridIDToNo[_GridNo]].EBaddr[_tim], AppToSmartmeter[msg.sender]);\r\n\t    grids[gridIDToNo[users[userAddresstoID[AppToSmartmeter[msg.sender]]].gridNo]].ESq[_tim][indxS]=_Qty;\r\n\t    grids[gridIDToNo[users[userAddresstoID[AppToSmartmeter[msg.sender]]].gridNo]].EBq[_tim][indxB]=0;\r\n\t    grids[gridIDToNo[users[userAddresstoID[AppToSmartmeter[msg.sender]]].gridNo]].ESp[_tim][indxS]=_price;\r\n        _sortSellOffers(users[userAddresstoID[AppToSmartmeter[msg.sender]]].gridNo, _tim);\r\n        _sortBuyOffers(users[userAddresstoID[AppToSmartmeter[msg.sender]]].gridNo, _tim);\r\n\t}\r\n\r\n\r\n\t/*This is use to ask for energy a user is willing to consume from another user\r\n\t_price: euro/kWh\r\n\t_Qty: Wh quantity the user can  in the next 15mins*/\r\n\tfunction placeBuyOffer(uint _price, uint _Qty, uint _tim ) public  OnlyAppNode(msg.sender)BidEnergyRequirements (_Qty,_price) \t{ \r\n\t    uint _GridNo=users[userAddresstoID[AppToSmartmeter[msg.sender]]].gridNo;\r\n\t    uint indxS=_getArrayIndex(grids[gridIDToNo[_GridNo]].ESaddr[_tim], AppToSmartmeter[msg.sender]);\r\n\t    uint indxB=\t_getArrayIndex(grids[gridIDToNo[_GridNo]].EBaddr[_tim], AppToSmartmeter[msg.sender]);\r\n\t    grids[gridIDToNo[users[userAddresstoID[AppToSmartmeter[msg.sender]]].gridNo]].EBq[_tim][indxB]=_Qty;\r\n\t    grids[gridIDToNo[users[userAddresstoID[AppToSmartmeter[msg.sender]]].gridNo]].ESq[_tim][indxS]=0;\r\n\t    grids[gridIDToNo[users[userAddresstoID[AppToSmartmeter[msg.sender]]].gridNo]].EBp[_tim][indxB]=_price;\r\n\t    _sortSellOffers(users[userAddresstoID[AppToSmartmeter[msg.sender]]].gridNo, _tim);\r\n\t    _sortBuyOffers(users[userAddresstoID[AppToSmartmeter[msg.sender]]].gridNo, _tim);\r\n\t}\r\n\r\n        /*This function is use to determine the index of a unique value in an array*/\r\n    function _getArrayIndex(address[] AddrArray, address uniqAddr) internal pure returns(uint indx){\r\n        indx=0;\r\n         for (uint i=0; i<AddrArray.length;i++){\r\n            if(AddrArray[i]==uniqAddr){\r\n                indx=i;  \r\n            }\r\n        } \r\n        return indx;\r\n    }\r\n\r\n\r\n}",
  "sourcePath": "D:\\blockchain\\react-box-master\\react-box-master\\truffle\\contracts\\PeerEnergy1.sol",
  "compiler": {
    "name": "solc",
    "version": "0.4.25+commit.59dbf8f1.Emscripten.clang"
  },
  "schemaVersion": "3.4.16",
  "updatedAt": "2024-07-20T12:29:25.821Z",
  "networkType": "ethereum",
  "devdoc": {
    "methods": {
      "UpdateAllowance(address,uint256)": {
        "params": {
          "_spender": "The address authorized to spend",
          "_value": "the max amount they can spend"
        }
      },
      "approve(address,uint256)": {
        "params": {
          "_spender": "The address authorized to spend",
          "_value": "the max amount they can spend, this value will be added to initial approroved value if any"
        }
      },
      "burn(uint256)": {
        "params": {
          "_value": "the amount of money to burn"
        }
      },
      "transfer(address,uint256)": {
        "params": {
          "_to": "The address of the recipient",
          "_value": "the amount to send"
        }
      },
      "transferFrom(address,address,uint256)": {
        "params": {
          "_from": "The address of the sender",
          "_to": "The address of the recipient",
          "_value": "the amount to send"
        }
      }
    }
  },
  "userdoc": {
    "methods": {
      "UpdateAllowance(address,uint256)": {
        "notice": "update allowance for other address    * Allows `_spender` to spend no more than `_value` tokens on your behalf"
      },
      "approve(address,uint256)": {
        "notice": "Set allowance for other address     * Allows `_spender` to spend no more than `_value` tokens on your behalf"
      },
      "burn(uint256)": {
        "notice": "Destroy tokens     * Remove `_value` tokens from the system irreversibly"
      },
      "placeSellOffer(uint256,uint256,uint256)": {
        "notice": "//////// 332 - 361"
      },
      "transfer(address,uint256)": {
        "notice": "Transfer tokens     * Send `_value` tokens to `_to` from your account"
      },
      "transferFrom(address,address,uint256)": {
        "notice": "Transfer tokens from other address     * Send `_value` tokens to `_to` on behalf of `_from`"
      }
    }
  }
}